:020000040800F2
:100000001028002051010008E9010008E90100085A
:10001000E9010008E9010008E9010008000000000A
:100020000000000000000000000000004167000820
:10003000E901000800000000256700086568000865
:10004000E9010008E9010008E9010008E9010008E8
:10005000E9010008E9010008A5770008B577000864
:10006000C5770008D5770008E5770008E9010008A2
:10007000E9010008E9010008E9010008E9010008B8
:10008000E9010008E9010008E9010008E9010008A8
:10009000E9010008E9010008E9010008F577000816
:1000A000E9010008E9010008E9010008E901000888
:1000B000E9010008E9010008E9010008ED760008FF
:1000C000FD7600080D7700081D770008E90100089B
:1000D000E90100086573000875730008857300085E
:1000E00009780008E9010008E901000800000000A3
:1000F0000000000000000000000000000000000000
:100100000000000000000000E9010008E90100080B
:10011000E9010008E9010008E9010008E901000817
:10012000E9010008E9010008E9010008E901000807
:10013000E9010008E9010008E9010008E9010008F7
:10014000E9010008E9010008E9010008E978000870
:1001500080B582B000AFCC221549164803F01EFDD1
:10016000134B7B607B6883F3098802233B603B6809
:1001700083F31488CC221049104803F00FFD0022AD
:100180000F49104803F00AFD0F4A1049104803F0C8
:10019000F7FC00220F49104803F000FD0F4A1049F8
:1001A000104803F0EDFC0AF045FE03F0D9FCFEE731
:1001B00010380020102800201028002010250020D2
:1001C0000C1F0020780F002084C30008780F002047
:1001D000240F00200C1F00200C1F0020D8C3000893
:1001E0000C1F00200C1F002080B500AF06F058FD4A
:1001F000020000006D20000802000000212300081A
:10020000000000008925000801000000A92D000859
:100210000000000069620008030000008D920008E1
:1002200080B500AF0121464803F002FF454B444A28
:100230001A6001211A2006F0EDFD05211A2006F0B2
:1002400043FD01211B2006F0E5FD05211B2006F0E2
:100250003BFD0121112006F0DDFD0521112006F0F6
:1002600033FD0121122006F0D5FD0521122006F0F4
:100270002BFD01211C2006F0CDFD05211C2006F0E0
:1002800023FD01211D2006F0C5FD05211D2006F0DE
:100290001BFD0121072006F0BDFD0521072006F00A
:1002A00013FD0121242006F0B5FD0521242006F0D0
:1002B0000BFD0121052006F0ADFD0521052006F00E
:1002C00003FD0121062006F0A5FD0521062006F00C
:1002D000FBFC0121252006F09DFD0521252006F0CF
:1002E000F3FC0121102006F095FD0521102006F0F9
:1002F000EBFC0121032006F08DFD0521032006F013
:10030000E3FC0121042006F085FD0521042006F010
:10031000DBFC0121012006F07DFD0521012006F016
:10032000D3FC0121022006F075FD0521022006F014
:10033000CBFC0021FF2000F007F800BF80BD00BF0C
:100340007C0F0020780F002080B483B000AF0346FC
:100350000A46FB711346BB7100BF0C37BD4680BC1B
:10036000704700BF80B582B000AF78600B46FB706D
:100370001346BB707B68002B02D0012B67D0D0E006
:10038000FB7803F00103002B0BD0BB7803F00103D3
:10039000002B0CBF01230023DBB219461A2006F004
:1003A00039FDFB7803F00203002B0BD0BB7803F080
:1003B0000203002B0CBF01230023DBB219461B20D4
:1003C00006F028FDFB7803F00403002B0BD0BB786C
:1003D00003F00403002B0CBF01230023DBB21946FA
:1003E000112006F017FDFB7803F00803002B0BD05B
:1003F000BB7803F00803002B0CBF01230023DBB202
:100400001946122006F006FDFB7803F01003002BBE
:100410000BD0BB7803F01003002B0CBF012300238B
:10042000DBB219461C2006F0F5FCFB7803F0200334
:10043000002B73D0BB7803F02003002B0CBF0123EB
:100440000023DBB219461D2006F0E4FC66E0FB78D1
:1004500003F00103002B0BD0BB7803F00103002B4A
:100460000CBF01230023DBB21946072006F0D2FCA3
:10047000FB7803F00203002B0BD0BB7803F00203E0
:10048000002B0CBF01230023DBB21946242006F009
:10049000C1FCFB7803F00403002B0BD0BB7803F006
:1004A0000403002B0CBF01230023DBB219460520F7
:1004B00006F0B0FCFB7803F00803002B0BD0BB78F0
:1004C00003F00803002B0CBF01230023DBB2194605
:1004D000062006F09FFCFB7803F01003002B0BD0E6
:1004E000BB7803F01003002B0CBF01230023DBB209
:1004F0001946252006F08EFCFB7803F02003002B24
:100500000ED0BB7803F02003002B0CBF0123002387
:10051000DBB21946102006F07DFC01E000BF00E0D0
:1005200000BF00BF0837BD4680BD00BF80B58AB0A0
:1005300000AF03463A60FB710B46BB71FB79002BA1
:1005400002D0012B3DD079E0BB791946042006F09A
:1005500061FC00237B6202E07B6A01337B627B6A81
:10056000132BF9D90021032006F054FC00233B6231
:1005700002E03B6A01333B623B6A132BF9D900234B
:10058000FB6102E0FB690133FB61FB69132BF9D9C5
:100590000121032006F03EFC0023BB6102E0BB69A1
:1005A0000133BB61BB69132BF9D9042006F066FC4B
:1005B00003461A463B681A70032006F05FFC0346A8
:1005C0003DE0BB791946022006F024FC00237B6144
:1005D00002E07B6901337B617B69132BF9D9002130
:1005E000012006F017FC00233B6102E03B69013368
:1005F0003B613B69132BF9D90023FB6002E0FB68E8
:100600000133FB60FB68132BF9D90121012006F0AF
:1006100001FC0023BB6002E0BB680133BB60BB6828
:10062000132BF9D9022006F029FC03461A463B6831
:100630001A70012006F022FC034600E00123184650
:100640002837BD4680BD00BF80B586B000AF0346E9
:100650000A46FB711346BB710023FB75FB791846F4
:1006600000F05CF8034683F00103DBB2002B01D0FD
:1006700000234FE007F10F02FB7900211846FFF736
:1006800055FF0346002B44D000233B611FE0FA7D59
:10069000BB795340FB75BB7903F00103002B14BFFA
:1006A00001230023D9B207F10F02FB791846FFF7A7
:1006B0003DFF034683F00103DBB2002B01D0002392
:1006C00028E0BB795B08BB713B6901333B613B6947
:1006D000072BDCD9FB7D03F00103002B0CBF0123AA
:1006E0000023D9B207F10F02FB791846FFF71EFF6E
:1006F0000346002B0DD007F10F02FB7901211846AC
:10070000FFF714FFFB7B002B14BF01230023DBB298
:1007100000E0002318461837BD4680BD80B582B082
:1007200000AF0346FB71FB79002B02D0012B0FD0E9
:100730001DE000BF032006F0A1FB034683F0010388
:10074000DBB2002BF6D1042006F098FB03460FE045
:1007500000BF012006F092FB034683F00103DBB2E9
:10076000002BF6D1022006F089FB034600E00123AE
:1007700018460837BD4680BD80B586B000AF034639
:100780003960FB710023FB7500233B610023FB6094
:1007900021E007F10B02FB7901211846FFF7C6FEA5
:1007A000034683F00103DBB2002B03D0FB68013367
:1007B0003B6113E0BB7D5B08BB75FB7A002B07D068
:1007C000BB7D63F07F03BB75FB7D83F00103FB758D
:1007D000FB680133FB60FB68072BDAD93B69002B10
:1007E00041D107F10B02FB7901211846FFF79EFE6C
:1007F0000346002B37D0FB7A1A46FB7D03F001033A
:10080000002B0CBF01230023DBB29A422BD107F14E
:100810000B02FB7901211846FFF788FE0346002BE7
:100820001ED0FB7A002B1BD007F10B02FB790021B5
:100830001846FFF77BFEFB79002B02D0012B05D079
:1008400009E00121042006F0E5FA04E0012102207C
:1008500006F0E0FA00BF3B68BA7D1A70012311E090
:100860000A233B6101E009233B613B69002B03D074
:1008700000210020FFF768FD3B69002B0CBF01231E
:100880000023DBB218461837BD4680BD80B582B064
:1008900000AF7860786809F0B1FE786808F046FA31
:1008A00000BF0837BD4680BD80B500AF024809F0E3
:1008B000A5F800BF80BD00BF240F002080B58CB01C
:1008C00004AF786039603B689B68BB61BB69002BF3
:1008D00002D1294804F0DAFE0023FB7700237B6174
:1008E0000023BB7200237B7200233B722DE0FB7A56
:1008F000012B02D0022B0BD027E007F1080307F1F0
:10090000090207F10A0107F10C0009F099FA1CE04D
:10091000BB691B79072B17D17A7A3B7A9A4211D09F
:10092000BB695B7918467B7A1A463B7A1946BB69E4
:100930001B780293019100920346104A104900204F
:1009400005F068FE0123FB7700BF07F10B0207F1FA
:100950000C031946386809F07DF90346002BC6D10F
:100960007B681B7D002B02D0064804F08FFEFB7FC6
:1009700018462037BD4680BD2CB300083CB30008A4
:1009800078B3000880B3000880B586B000AFF86087
:10099000B9607A603B60104B1B69002B17D17B68F4
:1009A0009B79FB757B68DB79BB75FB7D012B0ED1D9
:1009B000BB7D012B0BD139680748FFF77FFF03464A
:1009C000002B04D0044B01221A75034B00E00023D6
:1009D00018461837BD4680BD8C0F002080B584B006
:1009E00000AF78607B68FB600F4A1049012005F07A
:1009F00011FE7B681B6900220021184609F020FDCA
:100A00000346FB72FB7A83F00103DBB2002B04D0B8
:100A1000074A0649022005F0FDFDFB6802221A750F
:100A200000BF1037BD4680BD90B3000878B3000802
:100A300098B3000880B584B000AF78607B68FB6035
:100A4000FB6800221A75044A0449012005F0E2FD02
:100A500000BF1037BD4680BDB0B3000878B30008B2
:100A600080B584B000AFF8607A603B600B46FB72E3
:100A70003B68022B08D97B6819787B689A1C3B6815
:100A8000023BF86800F08EF900BF1037BD4680BD0C
:100A900080B588B002AFF8607A603B600B46FB72AD
:100AA0003B68FA7A00937B680221F86809F0FCFC45
:100AB0000346FB75FB7D18461837BD4680BD00BF59
:100AC00080B500AF02210220FFF73EFC04210C207C
:100AD000FFF73AFC08210C20FFF736FC00210C2020
:100AE000FFF732FC0E4803F061F80D48FFF7CEFE29
:100AF0000B4808F041FFFFF7D7FE00F0F9FE00F0C9
:100B000081FC074800F094FA054801F021F90548F6
:100B100008F004FC0021024803F02AF9FAE700BFBC
:100B2000A80F0020B8B3000880B584B000AF03461A
:100B30000A46FB711346BB71FF23FB73FB79642BE1
:100B400004D8FB79204AD35CFB732FE0FB79E03BB0
:100B5000072B2BD801A252F823F000BF7D0B000811
:100B6000830B0008890B00088F0B0008950B000809
:100B70009B0B0008A10B0008A70B00081423FB73B4
:100B800014E01223FB7311E01123FB730EE09F238B
:100B9000FB730BE09423FB7308E05923FB7305E020
:100BA0009123FB7302E0A723FB7300BFFB7BFF2BAA
:100BB00005D0BA79FB7B1146184600F079FA00BFE0
:100BC0001037BD4680BD00BF28B4000880B582B094
:100BD00000AF0346FB71FB79264A2749002005F048
:100BE00019FD264B1B78002B3BD0FB794F2B13D0E4
:100BF0004F2B04DC102B27D02C2B1FD02AE0512B9D
:100C000016D0512B02DB522B0CD023E00022012105
:100C10000020FFF7A7FB29E0002202210020FFF7B8
:100C2000A1FB23E0002204210020FFF79BFB1DE035
:100C3000002208210020FFF795FB17E00022102179
:100C40000020FFF78FFB11E0002220210020FFF79A
:100C500089FB0BE0FB7900211846FFF765FF00BF19
:100C600004E0FB7900211846FFF75EFF00BF08375C
:100C7000BD4680BDC8B30008D0B30008A40F002053
:100C800080B582B000AF78600B46FB70FB783E4ABF
:100C90003E49002005F0BEFCFB78442B2AD13C4B9A
:100CA0001B78002B14BF01230023DBB283F0010368
:100CB000DBB203F00103DAB2354B1A70344B1B7808
:100CC000002B01D0334B00E0334B344A2F49012035
:100CD00005F0A0FC2E4B1B78002B01D0022200E077
:100CE00000222F4B1A707B68186901232C4A0021BF
:100CF000FFF7CEFE264B1B78002B3BD0FB784F2B0B
:100D000013D04F2B04DC102B27D02C2B1FD02AE024
:100D1000512B16D0512B02DB522B0CD023E0012299
:100D200001210020FFF71EFB29E002220221002002
:100D3000FFF718FB23E0042204210020FFF712FB39
:100D40001DE0082208210020FFF70CFB17E010220D
:100D500010210020FFF706FB11E0202220210020B7
:100D6000FFF700FB0BE0FB7801211846FFF7DCFEE4
:100D700000BF04E0FB7801211846FFF7D5FE00BF55
:100D80000837BD4680BD00BFD4B30008D0B300080B
:100D9000A40F0020DCB30008E4B30008F0B300089F
:100DA000D80F002080B58EB000AFF8607A603B604D
:100DB0000B46FB723B68082B01D908233B60584B5C
:100DC0001A78FB7A5340FB7200237B6325E00122F3
:100DD0007B6B02FA03F3FB75FA7AFB7D1340DBB2FF
:100DE000002B17D07B6BDBB2203BD8B24C4B1A7870
:100DF000FB7D1340DBB2002B0CBF01230023DBB2D1
:100E00001946FFF791FE464B1A78FB7D5340DAB244
:100E1000434B1A707B6B01337B637B6B072BD6D9FB
:100E200000233B632BE0002387F82F300023BB62B5
:100E300010E03C4A3B6B13441A787968BB6A0B4458
:100E40001B789A4203D1012387F82F3006E0BB6A52
:100E50000133BB62BA6A3B689A42EAD397F82F30F3
:100E600083F00103DBB2002B06D02E4A3B6B134408
:100E70001B781846FFF7AAFE3B6B01333B633B6BC5
:100E8000072BD0D900237B622BE0002387F8233087
:100E90000023FB6110E07A687B6A13441A782149C9
:100EA000FB690B441B789A4203D1012387F8233056
:100EB00005E0FB690133FB61FB69072BEBD997F870
:100EC000233083F00103DBB2002B07D07A687B6A02
:100ED00013441B781946F868FFF7D2FE7B6A01338A
:100EE0007B627A6A3B689A42CFD30023BB6110E0F1
:100EF000BA693B689A4204D27A68BB6913441A788B
:100F000000E000220749BB690B441A70BB6901333A
:100F1000BB61BB69072BEBD900BF3837BD4680BD2D
:100F2000D90F0020DC0F002080B582B000AF03464F
:100F3000FB800B46BB801346FB70B7F90630002BD5
:100F400007D1BB88002B04D10A4B1B78FA789A4250
:100F50000CD0084AFB781370BB885B429BB219B275
:100F6000FA78B7F90630184600F026FF00BF0837B8
:100F7000BD4680BDE40F002080B588B004AF786026
:100F8000084611461A460346FB700B46BB701346D3
:100F90007B700023FB7397F90330002B04DAFB7B93
:100FA00043F00203FB7306E0FB78002B03D1FB7BCD
:100FB00043F00103FB7397F90230002B04DAFB7B4B
:100FC00043F00803FB7306E0BB78002B03D1FB7BE7
:100FD00043F00403FB737B7803F05503002B03D02D
:100FE000FB7B43F01003FB737B7803F0AA03002B19
:100FF00003D0FB7B43F02003FB73FB7B1A46FF21EE
:101000007868FFF7AFF9FB78BA78797802910192A6
:1010100000937B68044A0549012005F0FBFA00BFF4
:101020001037BD4680BD00BF00B4000824B40008DE
:1010300080B584B002AF78600121154802F0F8FF56
:101040000121144802F0F4FF00230093104B2022EA
:101050001149124804F038FB0023114A0D49114888
:1010600002F0C4FD00220F49786802F02DFE002333
:101070000D4A07490D4802F0B9FD4FF4FA720B49C9
:10108000786802F021FE00BF0837BD4680BD00BF72
:1010900030100020E80F00200C100020F80F002076
:1010A000E51300084010002049110008B810002086
:1010B00080B586B000AF03460A46FB711346BB718C
:1010C00000237B6197F90730002B08DA7B695A1CF3
:1010D0007A6107F118021344E02203F80C2CBB7963
:1010E00083F00103DBB2002B08D07B695A1C7A61C4
:1010F00007F118021344F02203F80C2C7B695A1CE8
:101100007A61FA7902F07F02D2B207F118010B443A
:1011100003F80C2C07F10C037A691946074804F010
:101120000DFB38613B69002B04D1054A05490220BB
:1011300005F070FA00BF1837BD4680BDF80F0020DB
:1011400090B400089CB4000880B586B002AF786007
:1011500039600023FB600023FB72524B1B78002B8D
:1011600013D1AA210020FFF76FFA0346FB72FB7A26
:10117000002B03D04B4B01221A7002E04FF4FA739C
:10118000FB60494802F0BCFF82E0464B1B78012B14
:1011900032D129E0454B1B78E02B03D1444B01228F
:1011A0001A7021E0414B1B78F02B03D1414B0122F7
:1011B0001A7019E03E4B1B78002B01D03E4A00E02C
:1011C0003E4A3C4B1B78002B01D02D2100E02B2107
:1011D000364B1B7800930B463949002005F01AFA6C
:1011E000304B02221A7007E001223049354804F0E2
:1011F000F7FA0346002BCDD12A4B1B78022B46D1A0
:10120000314B1B7883F00103DBB2002B25D0284B38
:101210001B78002B06D0E0210020FFF715FA0346CB
:10122000FB7201E00123FB72FB7A002B09D0214BFA
:101230001B78002B05D0F0210020FFF705FA0346AC
:10124000FB72FB7A002B0AD0184B1B781946002042
:10125000FFF7FAF90346FB7201E00023FB72FB7A09
:10126000002B0BD000F050F8114B00221A70114BDC
:1012700000221A700B4B01221A706CE7134A1049B6
:10128000002005F0C7F9084802F03AFF00E000BF6F
:10129000FA683968786802F017FD00BF1037BD465C
:1012A00080BD00BF2C100020E80F0020301100206E
:1012B0003111002032110020A4B40008ACB40008A1
:1012C0009CB40008F80F00202D100020B4B40008D2
:1012D00080B582B000AF78600020FFF71FFA0346A8
:1012E00083F00103DBB2002B08D079680020FFF700
:1012F00043FA0346002B01D0012300E000231846E7
:101300000837BD4680BD00BF80B582B000AF012365
:10131000FB714AE02B4B1B78002B1CD1BB79ED2BCA
:101320000AD0FF2B0FD1284B00221A70274A2849D8
:10133000022005F06FF928E0BA79224B1A70254B8C
:1013400001221A7021E0BB79234A2149002005F0CF
:1013500061F900BF19E01B4B1B78ED2B0FD1BA7957
:101360001E4B1B789A4209D0BA791C4B1A701B4B42
:101370001B781B4A1649002005F04CF900BF114BA1
:1013800000221A70134B00221A70FB79002B14D024
:10139000FA210020FFF758F9034683F00103DBB27E
:1013A000002B02D00B4B01221A70BB1D1846FFF711
:1013B0008FFF0346002BADD100E000BF00BF083710
:1013C000BD4680BD331100202C100020C0B40008A1
:1013D0009CB400082D100020C8B40008341100206F
:1013E000D8B4000880B582B000AF78603960FFF7EC
:1013F0008BFF05223968786802F066FC00BF083769
:10140000BD4680BD80B582B000AF02231C221049CA
:10141000104808F031FA00237B600EE07B68D8B2F8
:101420000B497A681346DB009B1A9B000B4415336B
:1014300002461A707B6801337B607B68012BEDD913
:10144000054808F0DBFA00BF0837BD4680BD00BF85
:101450005811002038110020340F002080B58CB0C6
:1014600002AF786039603B689B68BB61BB69002B49
:1014700002D1854804F00AF94FF0FF337B624FF048
:10148000FF333B620023FB61B6E0BB691B79012B94
:1014900040F0B2803B7B022B40F0AE807B7B002B88
:1014A00040F0AA803B69042B40F0A680BB695B79C1
:1014B000764A7749002005F0ADF80121386808F038
:1014C0008DFC0346002B00F0A4800221386808F050
:1014D00085FC0346002B00F09C8076E0FB7D012B11
:1014E00002D0022B13D070E07B7B002B6DD13B69C7
:1014F000302B02D0312B03D005E0FB697B6202E088
:10150000FB693B6200BFFB690133FB615DE0BB69C6
:101510001B79012B3ED17B6A002B1BDBBB699879C1
:10152000BB691A78BB699B79796AC9B201FB03F37D
:10153000DBB21344DAB27B68014699757B68DA75D1
:101540007B68DB7D534A5249002005F063F84FF079
:10155000FF337B623B6A002B34DBBB699879BB6944
:101560001A78BB699B79396AC9B201FB03F3DBB214
:101570001344DAB27B68014619767B685A767B6839
:101580005B7E454A4249002005F044F84FF0FF33A6
:101590003B6217E0BB691B79092B13D1BB69DB796F
:1015A000BA69927902FB03F3D9B2BB691A787B68F6
:1015B00099767B68DA767B68DB7E384A344900208E
:1015C00005F028F80023FB6100BF07F1170207F1BF
:1015D0000C031946386808F03DFB0346002B03D086
:1015E000FB7D002B7FF47AAFBB695B792C4A2849DD
:1015F000002005F00FF80CE007F1170207F10C03CB
:101600001946386808F026FB0346002B7FF43DAFEF
:1016100000E000BF7B681B7D002B02D0214804F056
:1016200035F87B689B7D002B29D07B681B7E002BC7
:1016300025D07B68DB7D1A467B689B7D0093134633
:10164000194A1349002004F0E5FF7B685B7E1A46C7
:101650007B681B7E00931346144A0D49002004F05A
:10166000D9FF7B68DB7E1A467B689B7E009313461E
:101670000F4A0749002004F0CDFF012300E00023BA
:1016800018462837BD4680BDF8B4000808B50008E4
:1016900030B5000838B500084CB5000860B5000842
:1016A00074B5000884B5000894B50008BCB50008FE
:1016B000E4B5000880B586B000AFF860B9607A6024
:1016C0003B607B689B79FB757B68DB79BB75FB7D39
:1016D000002B1FD1BB7D002B1CD1114808F004F951
:1016E00038613B69002B10D039683869FFF7B6FEC6
:1016F0000346002B04D03B6901221A753B690AE0BE
:101700003969074808F012F904E0064A0649022040
:1017100004F080FF002318461837BD4680BD00BF87
:101720003811002014B6000830B5000880B584B028
:1017300000AF78607B68FB600F4A1049012004F01D
:1017400069FF7B681B6900220021184608F078FEBB
:101750000346FB72FB7A83F00103DBB2002B04D05B
:10176000074A0649022004F055FFFB6802221A7559
:1017700000BF1037BD4680BD3CB6000830B500083C
:1017800044B6000880B584B000AF78607B68FB6029
:10179000FB6800221A75044A0449012004F03AFF4C
:1017A00000BF1037BD4680BD5CB6000830B50008EC
:1017B00080B586B000AFF860B9607A603B60FB68C6
:1017C0005B781846FB681B78082B03D8FB681B78EE
:1017D000194600E008213B68BA6808F0AFFE78615E
:1017E0007B69012B02D9064803F050FF7B69002B6F
:1017F00014BF01230023DBB218461837BD4680BD55
:1018000084B5000880B588B000AFF8607A603B60AE
:101810000B46FB72FB68FB61FB695B7DBB61FB698F
:1018200003F11A0007F115033A687968FFF7C0FF62
:101830000346002B51D0FB6903F1160007F1170393
:101840003A687968FFF7B4FF0346002B45D0FB697F
:1018500003F1180007F116033A687968FFF7A8FF4B
:101860000346002B39D0FA7D1E4B1B789A4209D1D2
:10187000BA7D1D4B1B789A4204D17A7D1B4B1B7895
:101880009A422AD0FB699B7D072B09D8FB7D1A461B
:10189000FB699B7DC3F1080302FA03F3DBB2FB751E
:1018A000FB691B7E072B09D8BB7D1A46FB691B7E93
:1018B000C3F1080302FA03F3DBB2BB75F97DBA7D0D
:1018C0007B7DB869FFF758FBFA7D064B1A70BA7D2D
:1018D000054B1A707A7D054B1A7000BF2037BD4644
:1018E00080BD00BF901100209111002092110020B6
:1018F00080B500AF024808F081F800BF80BD00BF8E
:10190000440F002080B58CB002AF786039603B682E
:101910009B68BB61BB69002B02D1994803F0B6FEFE
:101920004FF0FF337B624FF0FF333B620023FB61DC
:10193000DDE0BB691B79012B40F0D9803B7B022B9A
:1019400040F0D5807B7B002B40F0D1803B69022B9F
:1019500040F0CD80BB695B798A4A8B49002004F056
:1019600059FE0121386808F039FA0346002B00F0CF
:10197000CB80AAE0BB691B79012B40F0A6803B7BA2
:10198000022B40F0A2807B7B002B40F09E803B69C5
:10199000012B40F09A800021386808F01FFA0346B6
:1019A000002B00F0A28079E0FB7D012B02D0022BFE
:1019B00017D073E07B7B002B70D1BB691B79012BA7
:1019C0000BD13B69302B02D0312B03D005E0FB69F2
:1019D0007B6202E0FB693B6200BFFB690133FB6194
:1019E0005CE0BB691B79012B3ED17B6A002B1BDBC2
:1019F000BB699879BB691A78BB699B79796AC9B266
:101A000001FB03F3DBB21344DAB27B68014659757C
:101A10007B689A757B689B7D5C4A5B49002004F07B
:101A2000F9FD4FF0FF337B623B6A002B34DBBB696F
:101A30009879BB691A78BB699B79396AC9B201FB8D
:101A400003F3DBB21344DAB27B680146D9757B68D5
:101A50001A767B681B7E4E4A4B49002004F0DAFD63
:101A60004FF0FF333B6217E0BB691B79092B13D1A1
:101A7000BB69DB79BA69927902FB03F3D9B2BB691E
:101A80001A787B6859767B689A767B689B7E414A98
:101A90003D49002004F0BEFD0023FB6107F1170261
:101AA00007F10C031946386808F0D4F80346002BF8
:101AB00003D0FB7D002B7FF477AFBB695B79364A9F
:101AC0003149002004F0A6FD0FE007F1170207F1ED
:101AD0000C031946386808F0BDF80346002B13D0F4
:101AE000FB7D002B7FF446AF0EE000BF0CE007F15A
:101AF000170207F10C031946386808F0ABF80346E3
:101B0000002B7FF416AF00E000BF7B681B7D002B2D
:101B100002D0224803F0BAFD7B685B7D002B29D000
:101B20007B68DB7D002B25D07B689B7D1A467B681C
:101B30005B7D009313461A4A1349002004F06AFDA6
:101B40007B681B7E1A467B68DB7D00931346154A33
:101B50000D49002004F05EFD7B689B7E1A467B6881
:101B60005B7E00931346104A0749002004F052FDA3
:101B7000012300E0002318462837BD4680BD00BF82
:101B800074B6000884B60008A8B60008B4B6000809
:101B9000C8B60008DCB60008F0B6000800B70008B8
:101BA00010B7000838B7000860B7000880B586B0E5
:101BB00000AFF860B9607A603B60104B1B69002B86
:101BC00017D17B689B79FB757B68DB79BB75FB7DE7
:101BD000012B0ED1BB7D022B0BD139680748FFF7D3
:101BE00091FE0346002B04D0044B01221A75034BCF
:101BF00000E0002318461837BD4680BD9411002030
:101C000080B584B000AF78607B68FB600F4A1049F4
:101C1000012004F0FFFC7B681B69002200211846AC
:101C200008F00EFC0346FB72FB7A83F00103DBB283
:101C3000002B04D0074A0649022004F0EBFCFB68A5
:101C400002221A7500BF1037BD4680BD90B700084C
:101C5000A8B6000898B7000880B584B000AF7860D7
:101C60007B68FB60FB6800221A75044A0449012066
:101C700004F0D0FC00BF1037BD4680BDB0B70008EF
:101C8000A8B6000880B485B000AF786039603B68C2
:101C9000C3F12003FB607A68FB6802FA03F31A467B
:101CA000FB6842FA03F318461437BD4680BC704700
:101CB00080B588B000AFF8607A603B600B46FB727D
:101CC000FB68FB610023BB6100237B6100233B6158
:101CD000FB699B7D1846FB695B7D194607F118037C
:101CE0007A6808F02BFCBA69FB695B7D19461046DF
:101CF000FFF7C8FF0346BB61FB691B7E1846FB6903
:101D0000DB7D194607F114037A6808F017FC7A693D
:101D1000FB69DB7D19461046FFF7B4FF03467B6184
:101D2000FB699B7E1846FB695B7E194607F1100331
:101D30007A6808F003FCBB691BB27A6991B23A6910
:101D4000D2B21846FFF7F0F800BF2037BD4680BD7D
:101D500080B582B000AF78600121114802F068F9C7
:101D60000121104802F064F900230F4A0C490F4882
:101D700001F03CFF14220D49786801F0A5FF002313
:101D80000B4A08490B4801F031FF4FF47A720949B8
:101D9000786801F099FF00BF0837BD4680BD00BFDD
:101DA000B4110020C41100202D1F0008D411002000
:101DB000691E00084C12002080B584B000AF0346B5
:101DC000FB800B46BB801346FB70254B1B78022B18
:101DD00042D1B7F90430002B01DA202200E00022C2
:101DE000B7F90630002B01DA102300E0002313437B
:101DF0005BB243F008035AB297F9033003F00703CC
:101E00005BB213435BB2DBB23B72FB88DBB27B722B
:101E1000BB88DBB2BB720123FB720023FB6018E0BE
:101E200007F10802FB6813441B7819460120FEF7EE
:101E30000BFC0346FB72FB7A83F00103DBB2002B41
:101E400004D0084802F05CF900BF05E0FB680133EC
:101E5000FB60FB68022BE3D900BF1037BD4680BD95
:101E6000B0110020B411002080B586B002AF7860B8
:101E700039600023FB720023BB720023FB603B68C8
:101E80001B7B042B02D0052B04D023E04FF47A7384
:101E9000FB601FE0144B1B78002B1AD1AA210120F4
:101EA000FEF7D2FB0346002B10D000210120FEF7E5
:101EB000CBFB0346002B09D0FA7ABB7A009313467A
:101EC0000A4A0B49002004F0A5FB02E04FF47A73A4
:101ED000FB6000BFFA683968786801F0F5FE00BF62
:101EE0001037BD4680BD00BFB0110020B8B7000854
:101EF000D8B7000880B582B000AF78600120FEF747
:101F00000DFC034683F00103DBB2002B08D0796897
:101F10000120FEF731FC0346002B01D0012300E035
:101F2000002318460837BD4680BD00BF80B584B089
:101F300000AF7860396074E00123FB73414B1B787C
:101F4000002B59D1BB7BF23B0D2B4DD801A252F88F
:101F500023F000BFA51F0008BD1F0008C51F000813
:101F6000D71F0008E91F0008E91F0008E91F000843
:101F7000E91F0008E91F0008E91F0008E91F000821
:101F8000E91F0008E91F00088D1F00082E4B0022E2
:101F90001A702E4802F0B4F82D4A2E49022004F09F
:101FA00039FB37E02C4A2B49022004F033FB002197
:101FB0000120FEF749FB0023FB732BE0BA7B214B8A
:101FC0001A7027E0204B02221A70244A214902206D
:101FD00004F020FB1EE01C4B01221A70204A1D4910
:101FE000022004F017FB15E0BB7B1E4A19490020B4
:101FF00004F010FB00BF0DE0124B1B78F32B06D151
:10200000BB7B194A1349022004F004FB00BF0D4BAF
:1020100000221A70FB7B002B03D0FA210120FEF76F
:1020200013FB07F10E031846FFF764FF0346002B6E
:1020300082D114223968786801F046FE00BF10375B
:10204000BD4680BDC4120020B0110020C411002084
:10205000E4B70008D8B70008ECB70008F4B70008E8
:10206000FCB7000804B8000814B8000880B586B0B2
:1020700000AF00237B612BE07A691346DB009B1ADB
:10208000DB00174A13443B617B69DAB23B691A7083
:102090003B69043334220021184607F0D1FB3B6929
:1020A0004FF41652DA603B467A690E49184607F03B
:1020B000B1F97A691346DB0013449B000A4A981869
:1020C0003B463A69094904F011FA7B6901337B61A7
:1020D0007B69002BD0D000BF1837BD4680BD00BF44
:1020E000C81200202CB80008001300201CB80008FB
:1020F00080B584B000AF78607B68002B02D10C48BB
:1021000003F0C4FA7B681B68FB6007F108031946FB
:10211000F86801F0A1FA0246FB681344FB607B6893
:10212000FA681A60BB6818461037BD4680BD00BF0C
:1021300038B8000890B58DB002AFF860B9607A6029
:10214000FB70BB68FB61FB690433BB61FB681B6907
:10215000002B01D00F235FE03B1D1846FFF7C8FF9F
:1021600078617B69002B02D0BB697A699A603B1D5C
:102170001846FFF7BDFF78627B6A002B01D18023F0
:102180007B623B1D1846FFF7B3FF38623B6A002BAA
:1021900001D17B6A3B623A6A7B6A1344012118468B
:1021A00003F0EEF838613B69002B25D0BB6903F1E1
:1021B0000C003B6A9AB2FB68143300930023396920
:1021C00003F082FABB6903F120003A693B6AD11837
:1021D0007B6A9AB2FB6803F1240400230093234630
:1021E00003F072FAFB691B78B969184604F084FFA2
:1021F0000346002B0CD001E003230DE0FB681433F1
:10220000184601F07DFFFB68FA691A61002303E0BC
:10221000386903F003F9012318462C37BD4690BDF9
:1022200080B584B000AF78607B681B69FB60FB6899
:10223000002B02D1134803F029FAFB680433BB607A
:10224000BB68002B02D10F4803F020FABB681B6A61
:10225000002B03D0BB68DB68002B02D1094803F0D8
:1022600015FABB68DB68184603F0D8F87B680022D3
:102270001A61FB681B78184604F0E0FF00BF1037B6
:10228000BD4680BD38B8000880B586B000AFF860A4
:10229000B9607A60FB681B697B617B69002B02D1A6
:1022A0000B4803F0F3F97B6904333B613B69002B76
:1022B00002D1074803F0EAF97B691B787A68B968AC
:1022C000184604F0F1FF034618461837BD4680BD96
:1022D00038B8000880B586B000AFF860B9607A60A1
:1022E000FB681B697B617B69002B02D10B4803F003
:1022F000CDF97B6904333B613B69002B02D1074870
:1023000003F0C4F97B691B787A68B968184604F051
:10231000F1FF034618461837BD4680BD38B800089F
:1023200080B500AF0F49104807F09EFA0E4B01220E
:102330005A610D4B01221A614FF400730B4A0C498C
:102340000C4800F097F84FF400730B4A0B490C4807
:1023500000F090F80B4B0A4A0B490C4804F0C6F801
:1023600000BF80BD58B8000824130020701500205D
:1023700064B80008541300207013002070B80008DF
:102380003C13002078B8000848B8000870170020F7
:1023900080B586B000AFF860B9607A60FB70BB684A
:1023A0007B61FB681B69002B01D00F2308E0FB68F1
:1023B0001433184601F0A4FEFB687A691A61002301
:1023C00018461837BD4680BD80B584B000AF786030
:1023D0007B681B69FB60FB68002B02D1044803F09B
:1023E00055F97B6800221A6100BF1037BD4680BDD9
:1023F00084B8000880B586B000AFF860B9607A6034
:10240000FB681B697B617A68B968786900F050F8ED
:10241000034618461837BD4680BD00BF80B588B05A
:1024200000AFF860B9607A60FB681B69BB6100238C
:10243000FB61FB69BA68D118FB697A68D31A1A463E
:10244000B86900F043F803467B617B69002B08D034
:10245000FA697B691344FB61FA697B689A4202D08E
:10246000E7E700BF00E000BFFB6918462037BD4624
:1024700080BD00BF80B485B000AFF860B9607A60FD
:102480003B60FB681A460023136053609360D3607F
:1024900013615361FB68BA681A60FB687A685A6016
:1024A000FB683A689A6000BF1437BD4680BC70472D
:1024B00080B485B000AFF860B9607A604FF0FF3348
:1024C00018461437BD4680BC704700BF80B588B041
:1024D00000AFF860B9607A60FB68002B02D0BB687F
:1024E000002B02D1264803F0D1F8FB681A69FB687B
:1024F000DB68D31A013BFB61FB69002B04DAFB6844
:102500009A68FB691344FB61FB69002B04DBFB68E1
:102510009A68FB699A4202D81A4803F0B7F8FB6937
:102520007A689A4201D9FB697B60FB68DB68BB6112
:1025300000237B6114E0FB685A68BB69591CB961D0
:102540001344B9687A690A4412781A70FB689A6869
:10255000BB699A4201D10023BB617B6901337B6176
:102560007A697B689A42E6D304F0A6FBFB68BA69F5
:10257000DA6004F0A1FB7B6818462037BD4680BDB9
:1025800084B8000894B8000880B582B000AF194B39
:102590001B683B601DE0174B1B687B6010E03B68CD
:1025A0001A687B681B681946104601F07DFA0346DD
:1025B000002B02D1104803F069F87B6810337B6070
:1025C0007A683B689A42EAD30C4B1B6801330B4A8A
:1025D0001360084B1A68094B1B681B0113443B60CE
:1025E000074B1B683A689A42D5D300BF0837BD46EF
:1025F00080BD00BF540F0020A4B80008941700202D
:10260000580F002080B584B000AFF860B9607A60E0
:10261000FB681B795BB2002B17DAFB689B68002B09
:1026200002D1574803F032F8FB689B681B68002B07
:1026300002D1534803F02AF8FB689B681B687A684C
:10264000B968F8689847012396E0FB681B7903F0A6
:102650001003002B05D0FB685B791A46BB689A42D1
:1026600003D8BB68002B40F08680FB681B79042BE5
:1026700008D1FB689A68BB689B0013441A687B68A2
:102680001A6076E0FB681B7903F00803002B39D051
:10269000FB681B7903F00703032B6AD801A252F8E9
:1026A00023F000BFB5260008C9260008DF26000871
:1026B000F1260008FB689A68BB68134493F9003060
:1026C0001A467B681A6054E0FB689A68BB685B0036
:1026D0001344B3F900301A467B681A6049E0FB687E
:1026E0009A68BB689B0013441A687B681A6040E0D4
:1026F000FB689A68BB689B0013441A687B681A6081
:1027000000BF36E0FB681B7903F00703032B30D8CA
:1027100001A252F823F000BF292700083B27000838
:102720004F27000861270008FB689A68BB681344BC
:102730001B781A467B681A601BE0FB689A68BB68C6
:102740005B0013441B881A467B681A6011E0FB6823
:102750009A68BB689B0013441A687B681A6008E09B
:10276000FB689A68BB689B0013441A687B681A6010
:1027700000BF012300E0002318461037BD4680BD8E
:10278000B4B8000890B589B000AFF860B9607A605D
:10279000FB68002B02D1354802F078FF0023FB6173
:1027A00007F114031A46B968F868FFF72BFF0346D0
:1027B000002B50D0FB68DB68002B02D0FB68DB6885
:1027C00008E0FB681B7903F00703032B01D1284BBA
:1027D00000E0284BBB61FB681B7903F00703042B67
:1027E0000DD1FB697A68134479694FF0FF321846BE
:1027F00001F034F90246FB691344FB612BE0FB68EE
:102800001B7903F00703032B11D1FB697A68D418F5
:102810007B69184608F022FC02460B46B96920463F
:1028200006F0F8FD0246FB691344FB6113E0FB6907
:102830007A68D018FB681B7903F00803002B01D0DD
:102840007B6900E07B691A46B96906F0E3FD024640
:10285000FB691344FB61FB697A68134400221A7018
:10286000FB6918462437BD4690BD00BFB4B80008C8
:10287000C4B80008C8B8000880B586B000AF78605A
:1028800039607B68002B07D14FF0FF32414938682F
:1028900001F0E4F8034678E07B681B7903F010034D
:1028A000002B06D13A6800217868FFF76BFF0346DA
:1028B0006BE00023FB6000237B6100233B6156E05B
:1028C00007F10C031A4639697868FFF79BFE034647
:1028D000002B53D07B681B7903F00703042B0DD129
:1028E0007B693A681344F9684FF0FF32184601F0EB
:1028F000B5F802467B6913447B612DE07B681B7948
:1029000003F00703032B0CD17B693A681344F96881
:102910000222184600F0BEFF02467B6913447B6129
:102920001AE07B693A68D0187B68DB68002B02D01C
:102930007B68D96800E018497B681B7903F00803BD
:10294000002B01D0FB6800E0FB681A4606F062FD30
:1029500002467B6913447B617B695A1C7A611A4683
:102960003B68134420221A703B6901333B617B684A
:102970005B791A463B699A42A2D800E000BF7B69A6
:102980003A68134400221A707B6918461837BD460E
:1029900080BD00BFCCB80008C8B8000880B48BB0B8
:1029A00000AFF860B96011461A460B46FB7113463A
:1029B000BB71BB681B781A46BB6813447B62FB681B
:1029C000DB781B02FA68927813431A46FB681344BB
:1029D0003B620023FB617A6AFB689A4235D92EE09C
:1029E0007B6ABB61BB695B78042B2DD0BB695B78CC
:1029F000052B1ED1BB69FB61FB699B785BB2DBB227
:102A0000DB09DBB2FB75FB69DB78C3F30103DBB2E7
:102A10001A46FB799A420CD1FA7DBB799A4208D1C9
:102A20003B6B002B03D03B6B013B3B6301E0FB693D
:102A30000CE0BB691B781A467B6A13447B627A6A96
:102A40003B6A9A42CCD300E000BF002318462C37E3
:102A5000BD4680BC704700BF80B489B000AFF8604D
:102A6000B96011461A460B46FB711346BB71BB6831
:102A70001B781A46BB681344FB61FB68DB781B02BA
:102A8000FA68927813431A46FB681344BB6100232B
:102A90007B61FA69FB689A4220D919E0FB693B61C6
:102AA0003B695B78042B18D03B695B78FA799A42D2
:102AB00008D1BB79002B03D0BB79013BBB7101E08E
:102AC0003B690CE03B691B781A46FB691344FB61C8
:102AD000FA69BB699A42E1D300E000BF00231846BF
:102AE0002437BD4680BC704780B586B000AF7860A3
:102AF00039603B687B617B691B683B617B681B6855
:102B00007A6951687A69926838699847F860FB6811
:102B1000002B04D07B69FA68DA60012300E000230F
:102B200018461837BD4680BD80B584B000AF7860C8
:102B3000396000233B7209237B723B685B799BB24F
:102B40007B810023BB810023FB8107F10801002367
:102B50000022786800F08AFC034618461037BD460C
:102B600080BD00BF80B590B000AF786039603B6831
:102B70003B633B681B78FB630023BB6365E03A6BF8
:102B8000FB6B1344FB6207F10C0300221A605A60CE
:102B90009A60DA607B68FB603B683B61FB6A7B6143
:102BA000002387F83730FB6A5B78042B0BD1FB6A74
:102BB000BB6207F10C0319462B4800F07DF9034670
:102BC00087F837300EE0FB6A5B780B2B0AD1FB6A83
:102BD0007B6207F10C031946234800F06DF90346A8
:102BE00087F8373097F83730002B28D0BB6B002B95
:102BF00012D139687868FFF797FF034683F0010325
:102C0000DBB2002B08D03B689B79184A184900209A
:102C100003F000FD00BF22E0BB693B623B6A1B6919
:102C2000FB61FB695B68386A98477B6810333A6AD6
:102C30001146184601F018FCBB6B0133BB63FB6AFD
:102C40001B781A46FB6B1344FB633B68DB781B0263
:102C50003A68927813431A46FB6B9A428FD8BB6B43
:102C600018464037BD4680BDE92A0008D4B80008A0
:102C7000F4B8000880B588B002AF78600B46FB70EE
:102C8000FA7809230093244B0221786800F054FC61
:102C90000346FB75FB7D002B33D01F4B3B613B692B
:102CA000DB781B023A6992781343FB60FB68B3F54B
:102CB000006F1FD8FB689BB2FA780093164B022175
:102CC000786800F039FC0346FB75FB7D002B0AD0C9
:102CD00039697868FFF746FF0346002B14BF0123CC
:102CE0000023FB7513E0FB780C4A0D49002003F02C
:102CF00091FC0CE0FB780B4A0949002003F08AFCA8
:102D000005E0FB78084A0649002003F083FCFB7DC0
:102D100018461837BD4680BD0000002000B90008E5
:102D2000F4B8000828B9000848B9000880B584B094
:102D300000AF786039603B685B7A1B021AB23B686F
:102D40001B7A1BB213431BB29AB27B68A3F84C20C8
:102D50003B68DB7A1B021AB23B689B7A1BB21343B7
:102D60001BB29AB27B68A3F84E200023FB733B682A
:102D70005B7C7B730023BB730DE0BB7B19467868DB
:102D8000FFF778FF0346002B02D00123FB7306E018
:102D9000BB7B0133BB73BA7B7B7B9A42EDD3FB7B5E
:102DA00018461037BD4680BD80B500AF034801F01E
:102DB0001BFB034802F086FB00BF80BD9817002074
:102DC000A417002090B585B000AFF860B9607A60B4
:102DD0003B60FB68002B02D0BB68002B02D1194876
:102DE00002F054FC7B68002B02D1164802F04EFC26
:102DF0003B68002B02D1144802F048FC3B68DCB26F
:102E0000FB6818463C231A46002106F019FDFB68B2
:102E1000BA68DA60FB68224683F83420FB687A6877
:102E20009A63FB6814330121184601F001F9FB682D
:102E300024330121184601F0FBF800BF1437BD46CA
:102E400090BD00BF70B9000880B9000880B582B09D
:102E500000AF78607B68002B02D1134802F016FCAB
:102E6000124802F08BFB7B68002B03D07B68DB6889
:102E7000002B02D10C4802F009FC7B6819460C4873
:102E800001F05CFB0346002B02D00A4802F0FEFB77
:102E90007B681946064801F0E7FA044802F0D8FBBF
:102EA00000BF0837BD4680BD70B90008A4170020D8
:102EB0009817002090B9000880B586B000AF786000
:102EC00039607B68002B02D1144802F0DFFB144804
:102ED00002F054FB0023FB75124B1B683B610FE0B3
:102EE0003B69FB60FB68DA687B6839681046984785
:102EF0000346FB75FB7D002B07D13B691B683B61DB
:102F00003B69094A9342EBD100E000BF044802F05C
:102F10009FFBFB7D18461837BD4680BD70B9000881
:102F2000A4170020981700209C17002080B586B0B9
:102F300000AFF860B9607A60FB70FB68002B02D0CC
:102F4000BB68002B02D11F4802F0A0FBFB68BA68E7
:102F5000DA60FB681033184601F046FAFB682C3340
:102F6000184602F0AFFA7B68DAB2FB6883F84820B3
:102F7000FB68FA7883F84920FB68002283F84A202E
:102F8000FB680022A3F84E20FB68B3F84E20FB68D4
:102F9000A3F84C20FB68002283F85020FB681C3308
:102FA0007B617B691A460023136053609360D36092
:102FB0007B69FA681A607B6908229A7200BF183729
:102FC000BD4680BD70B9000890B589B000AFF8600B
:102FD000B9601346FB71FB6893F834301A46BB683E
:102FE0009A4202D81B4802F051FBFB689B6B002BF6
:102FF00002D1194802F04AFBFB689A6BBB68542166
:1030000001FB03F31344FB61FB79BA68F968F869C3
:10301000FFF78CFFFB68DB68BB61BB69002B03D04B
:10302000BB699B69002B02D10B4802F02FFBBB69E7
:103030009C69FB79BA68F969F868A0470346FB7593
:10304000FB7D002B01D0FB6900E0002318462437EC
:10305000BD4690BD80B9000870B9000890B589B030
:1030600000AFF860B9607A60FB70FB68002B02D09B
:10307000BB68002B02D1164802F008FBFB68DB6836
:10308000FB61FB69002B02D1114802F0FFFAFB78CB
:103090007A68F969B868FFF749FFFB69DB68BB61CB
:1030A000BB69002B03D0BB699B69002B02D1084888
:1030B00002F0ECFABB699C69FB787A68B968F86938
:1030C000A0470346FB75FB7D18462437BD4690BDDF
:1030D00070B9000880B584B000AF78607B68002BC1
:1030E00002D10D4802F0D2FA7B6810331B68FB60F6
:1030F00007E0FB68BB60B86800F06AF8FB681B6813
:10310000FB607B6803F11402FB689A42F1D100BFB7
:103110001037BD4680BD00BF70B9000880B584B0CF
:1031200000AF78607B68002B02D1154802F0AEFA40
:103130007B68DB68FB60FB68002B02D1104802F063
:10314000A5FA7B6893F85030002B14D0FB68DB683D
:10315000BB60BB68002B03D0BB68DB69002B02D1CE
:10316000074802F093FABB68DB697968F86898470A
:103170007868FFF7AFFF00BF1037BD4680BD00BFC6
:1031800070B9000880B584B000AFF860B9607A60AB
:10319000FB68002B05D0BB68002B02D07B68002B9E
:1031A00002D10A4802F072FAFB681A460023136043
:1031B00053609360D3601361FB68BA68DA60FB68A0
:1031C0007A681A6100BF1037BD4680BD70B900082B
:1031D00080B584B000AF78607B68002B02D10748CF
:1031E00002F054FA7B681B69FB60FB689B68786897
:1031F000984700BF1037BD4680BD00BF70B90008BA
:10320000F0B585B000AFF860B9607A60FB68002B5C
:1032100005D0BB68002B02D07B68002B02D11F4871
:1032200002F034FA7B68DB78C3F30103DBB21E469D
:103230007B689B785BB2DBB2DB09DBB21D467B6847
:103240005B791B025AB27B681B795BB213435BB29A
:10325000D8B27B689B78C3F30303DBB21C467B6860
:103260009979BB681A460023136053609360D3605A
:10327000BB68FA681A60BB6832461A72BB682A4695
:103280005A72BB6802469A72BB682246DA72BB6801
:103290000A461A7300BF1437BD46F0BD70B9000866
:1032A00080B586B000AF78607B68002B02D11A48E9
:1032B00002F0ECF97B681B687B617B69002B02D113
:1032C000154802F0E3F97B692C33184602F056F9F1
:1032D0007B69DB683B613B69002B02D10E4802F041
:1032E000D5F93B69DB68FB60FB68002B02D10A481B
:1032F00002F0CCF9FB689B68796838699847034607
:10330000FB727B692C33184602F0A2F9FB7A18464F
:103310001837BD4680BD00BF70B9000880B586B0C3
:1033200000AF78607B68002B02D11A4802F0AEF93A
:103330007B681B687B617B69002B02D1154802F01A
:10334000A5F97B692C33184602F018F97B69DB6814
:103350003B613B69002B02D10E4802F097F93B69B3
:10336000DB68FB60FB68002B02D10A4802F08EF993
:10337000FB68DB687968386998470346FB727B69AC
:103380002C33184602F064F9FB7A18461837BD460C
:1033900080BD00BF70B9000890B589B000AFF8607B
:1033A000B9607A60FB68002B03D0FB68DB68002BF8
:1033B00002D1134802F06AF9FB68DB681B68FB6105
:1033C000FB69002B02D10E4802F060F9FB69DB6853
:1033D000BB61BB69002B02D1094802F057F9BB69F8
:1033E000DB687B617B691C697B68BA68F968B869CE
:1033F000A0470346FB74FB7C18462437BD4690BDAE
:1034000070B9000880B586B000AF786039607B681D
:10341000002B03D07B68DB68002B02D1124802F03E
:1034200035F97B68DB681B687B617B69002B02D107
:103430000D4802F02BF97B69DB683B613B69002B8F
:1034400002D1094802F022F93B69DB68FB60FB68A6
:103450005B693A68796838699847B860BB6818460C
:103460001837BD4680BD00BF70B9000890B58BB05D
:1034700002AFF860B9607A603B60BB68002B02D194
:103480002C4802F003F9FB68002B04D0FB6893F88A
:103490005030012B01D0002348E0FB682C33184644
:1034A00002F06CF8FB68DB68FB61FB69002B02D162
:1034B000204802F0EBF8FB69DB68BB61FB68BA6887
:1034C00040331068516803C33B68002B16D0BB68BB
:1034D0001B785BB2002B11DABB691C68FB6803F137
:1034E00040013B6800937B680822F868A0470346C8
:1034F000002B14BF01230023DBB210E0BB695C6822
:10350000FB6803F140013B6800937B680822F86880
:10351000A0470346002B14BF01230023DBB2FB7539
:10352000FB682C33184602F093F8FB7D18462437CD
:10353000BD4690BD70B9000880B586B000AFF86098
:103540007B600B46FB721346BB7280233B740623E1
:103550007B74FB7A1B021AB2BB7A1BB213431BB2F9
:103560009BB27B820023BB823B8CFB823B8C07F1AE
:1035700010017A68F868FFF779FF03461846183794
:10358000BD4680BD80B584B000AF78600846114666
:103590001A4603467B800B467B7013463B708123A3
:1035A0003B7206237B727B781B021AB23B781BB2FC
:1035B00013431BB29BB27B817B88BB81BB8BFB819E
:1035C000BB8B07F10801BA697868FFF74FFF034624
:1035D00018461037BD4680BD80B584B000AF786016
:1035E0000B46FB7000233B7205237B72FB789BB27A
:1035F0007B810023BB810023FB8107F108010023AD
:1036000000227868FFF732FF034618461037BD46A0
:1036100080BD00BF80B582B000AF786039607B6844
:10362000002B02D03B68002B02D10A4802F02EF892
:103630007B683A68DA607B6810330121184600F035
:10364000F7FC7B68002283F82C2000BF0837BD46BA
:1036500080BD00BF70B9000880B586B000AF78604B
:1036600039607B68002B02D03B68002B02D11548E3
:1036700002F00CF800237B6100233B6112E0FB7B2E
:103680002F2B17D9FB7B392B14D87A6913469B0053
:1036900013445B001A46FB7B1344303B7B613B6960
:1036A00001333B617A683B6913441B78FB73FB7BF6
:1036B000002BE4D13B687A691A603B6918461837D9
:1036C000BD4680BDACB9000880B48DB000AFF860D5
:1036D000B9607A60FB707B68102B01D910237B6086
:1036E000BB68FB620023BB62B96A4B1CBB62F86A11
:1036F000244BA3FB0023DA0813469B0013445B0012
:10370000C21AD3B23033DAB207F130030B4403F8F4
:103710001C2CFB6A1B4AA2FB0323DB08FB62FB6A2F
:10372000002BE1D108E0BB6A5A1CBA6207F13002F3
:103730001344FA7803F81C2CBA6A7B689A42F2D3D5
:1037400000237B620FE07B6AFA6813447A6AB96AE5
:103750008A1A013A07F130010A4412F81C2C1A7037
:103760007B6A01337B627A6ABB6A9A42EBD3FA685E
:10377000BB6A134400221A70BB6A18463437BD4630
:1037800080BC7047CDCCCCCC80B586B000AFF860A3
:10379000B9607A60FB70BB68002B10DAFB685A1CBA
:1037A000FA602D221A70BB685B421946FB787A6872
:1037B000F868FFF789FF034601337B6106E0B968CB
:1037C000FB787A68F868FFF77FFF78617B691846B5
:1037D0001837BD4680BD00BF80B48DB000AFF86023
:1037E000B9607A60FB707B68102B01D910237B6075
:1037F000BB68FB620023BB62FB6A03F00F033B6202
:10380000BB6A5A1CBA623A6A092A04D83A6AD2B226
:103810003032D2B203E03A6AD2B23732D2B207F1D2
:1038200030010B4403F8202CFB6A1B09FB62FB6A86
:10383000002BE1D108E0BB6A5A1CBA6207F13002E2
:103840001344FA7803F8202CBA6A7B689A42F2D3C0
:1038500000237B620FE07B6AFA6813447A6AB96AD4
:103860008A1A013A07F130010A4412F8202C1A7022
:103870007B6A01337B627A6ABB6A9A42EBD3FA684D
:10388000BB6A134400221A70BB6A18463437BD461F
:1038900080BC704780B58EB000AFF860B9607A60C8
:1038A00000237B63BB687B617B69DB15DBB27B62DA
:1038B0007B69C3F316033B627B6AFF2B3BD13B6AF8
:1038C000FF2B21D17B6B5A1C7A63FA6813447A6907
:1038D000002A01DA2D2200E02B221A707B6B5A1C81
:1038E0007A63FA68134469221A707B6B5A1C7A63F4
:1038F000FA6813446E221A707B6B5A1C7A63FA685A
:10390000134466221A7014E07B6B5A1C7A63FA68BF
:1039100013444E221A707B6B5A1C7A63FA68134464
:1039200061221A707B6B5A1C7A63FA6813444E2228
:103930001A707B6B8BE04FF00001B86807F0BEFC9B
:103940000346002B0AD07B6B5A1C7A63FA68134437
:103950002D221A70BB6883F00043BB60B86807F083
:103960005DFB0346FB6130230022F969F868FFF72D
:103970000BFF7863F86907F039FB03461946B8680E
:1039800007F08CFB0346BB607B68002B59D04FF0DF
:103990000001B86807F084FC0346002B51D17B6B13
:1039A0005A1C7A63FA6813442E221A7000233B6370
:1039B0000023FB62002387F82B3031E02649B868EA
:1039C00007F004FC0346BB60B86807F027FB03461A
:1039D000BB61B86907F00AFB03461946B86807F0EF
:1039E0005DFB0346BB60BB69002B02DD012387F84A
:1039F0002B3097F82B30002B02D03B6B01333B630D
:103A00007B6B5A1C7A63FA681344BA69D2B23032BB
:103A1000D2B21A70FB6A0133FB627B68013B7B60A8
:103A20004FF00001B86807F061FC0346002B08D096
:103A3000FB6A252B05DC7B68002B02D03B6B052B3A
:103A4000BCDDFA687B6B134400221A707B6B18464E
:103A50003837BD4680BD00BF0000204180B487B02C
:103A600000AFF860B9607A6000237B610AE0FA6811
:103A70007B691344FA7C1A70FB7C002B0CD07B69A9
:103A800001337B61BA687B6913441B78FB747A69E4
:103A90007B689A42EBD300E000BF7B6918461C3775
:103AA000BD4680BC704700BF80B485B000AF786071
:103AB00039607B685A1C7A601B78FB733B685A1C20
:103AC0003A601B78BB73FA7BBB7B9A4204D1FB7BC9
:103AD000002BEED1002307E0FA7BBB7B9A4202D297
:103AE0004FF0FF3300E0012318461437BD4680BC79
:103AF000704700BF80B586B000AF78600C4B3B616B
:103B00000C4BFB603B697B610AE07B691A687B6850
:103B10009A4202D17B695B6898477B6908337B6175
:103B20007A69FB689A42F0D300BF1837BD4680BD62
:103B3000F00100082002000880B500AF0020FFF768
:103B4000D9FF0120FFF7D6FF0220FFF7D3FF0320A4
:103B5000FFF7D0FF0420FFF7CDFF00BF80BD00BFFF
:103B600080B500AF00F00AFD02F062FF01F088FEB0
:103B700002F01AFAFFF7E0FFFCF7A2FF00BF80BDDA
:103B800090420AD0884208D0013A0138013912F82F
:103B9000013F00F8013F8842F9D17047884203D0C5
:103BA00000F8012B8142FBD1704700BF80B582B085
:103BB00000AF78607B68002B02D10B4801F066FDF6
:103BC0007B68184601F07EFC7B6820330021184694
:103BD00000F02EFA7B681433184600F005FC00BF95
:103BE0000837BD4680BD00BFBCB9000880B584B0B1
:103BF00000AFF860B9607A603B60FB68002B02D1CF
:103C0000144801F043FD7B68002B02D1114801F0FC
:103C10003DFDFB68184678231A46002105F010FE8A
:103C2000FB6801221A73FB68BA685A61FB687A68FC
:103C30001A67FB683A685A67FB681833184601F040
:103C400045FFFB685833184601F040FF00BF1037AE
:103C5000BD4680BDBCB9000880B582B000AF7860B9
:103C600039603B681B69002B27D03B681A697B6869
:103C70009A4202D0134801F009FD3B685B7B03F0D8
:103C80000103002B09D03B685833184602F00CF8AA
:103C90003B683033184602F03FFA3B685B69002B03
:103CA00004D03B681833184601F0FEFF3B68184605
:103CB00000F01CFC3B6800221A6100BF0837BD46BB
:103CC00080BD00BFCCB9000880B584B000AFF860FB
:103CD000B9607A60FB68002B02D1234801F0D6FC62
:103CE000BB68002B02D1204801F0D0FCBB681B7BD5
:103CF000002B02D11D4801F0C9FCFB68184601F0F9
:103D00003DFCB968F868FFF7A7FFBB6800225A734B
:103D10007B68002B0DD0BB685B7B43F00103DAB2FC
:103D2000BB685A73BB68303300227968184602F0CA
:103D30009DF9BB6802221A73BB68FA681A61FB68B6
:103D40001433BA681146184600F08EFBFB68203326
:103D5000184600F0F9F9FB68184601F079FC00BF3D
:103D60001037BD4680BD00BFBCB90008CCB9000803
:103D700080B5C0B000AF78603B4619607B68002B0F
:103D800002D1AA4801F082FC0023C7F8FC300023CE
:103D9000C7F8F8307B68184601F0F0FB7B681433F5
:103DA0001B68C7F8F4306CE0D7F8F430C7F8E83097
:103DB0000023C7F8F030D7F8E8305B69002B1FD03C
:103DC000D7F8E8305A69D7F8E83018331946104662
:103DD00000F064F9C7F8E000D7F8E030002B08D114
:103DE000D7F8E83004221A73D7F8E830C7F8FC3067
:103DF0004EE0D7F8F020D7F8E0301343C7F8F030A2
:103E0000D7F8E8305B7B03F00103002B20D0D7F814
:103E1000E83003F14802D7F8E83058331946104625
:103E200000F03CF9C7F8E400D7F8E430002B08D1E3
:103E3000D7F8E83005221A73D7F8E830C7F8FC3015
:103E400026E0D7F8F020D7F8E4301343C7F8F03075
:103E5000D7F8F030002B08D1D7F8E83003221A73D6
:103E6000D7F8E830C7F8FC3012E0D7F8F820D7F8D8
:103E7000F0301343C7F8F830D7F8F4301B68C7F8B0
:103E8000F4307B6803F11802D7F8F4309A428BD1F2
:103E9000D7F8FC30C7F8DC30D7F8FC30002B0DD059
:103EA000D7F8FC2007F1600311467822184605F088
:103EB000D1FCD7F8FC107868FFF7CEFE7B68184677
:103EC00001F0C6FBD7F8FC30002B40F09B8007F1D7
:103ED0004803184601F0FAFD7B68203307F14802D9
:103EE0001146184600F0DAF80246D7F8F8301343C6
:103EF000C7F8F8303B461B68002B29D03B4607F13A
:103F000008000022196802F0B1F807F130031846E2
:103F100001F0DCFD07F1300207F108031833114608
:103F2000184600F0BBF80246D7F8F8301343C7F83C
:103F3000F830D7F8F80001F0D1FF07F13003184648
:103F400001F0B2FE07F10803184602F0E5F803E0BD
:103F5000D7F8F80001F0C2FF07F14803184601F056
:103F6000A3FE7B68184601F009FB7B6814331B68CD
:103F7000C7F8EC3032E0D7F8EC30C7F8D830D7F8D3
:103F8000D8305B69002B0ED0D7F8D83093F82430A6
:103F9000022B08D1D7F8D83004221A73D7F8D830BA
:103FA000C7F8FC3021E0D7F8D8305B7B03F0010381
:103FB000002B0ED0D7F8D83093F86430022B08D1FC
:103FC000D7F8D83005221A73D7F8D830C7F8FC30A4
:103FD0000BE0D7F8EC301B68C7F8EC307B6803F1D6
:103FE0001802D7F8EC309A42C5D1D7F8FC30002B34
:103FF00004D0D7F8FC107868FFF72EFE7B681846CF
:1040000001F026FBD7F8FC30002B08D0D7F8FC30A5
:104010001B6FD7F8FC1078689847012300E0002355
:10402000184607F58077BD4680BD00BFBCB90008C3
:1040300080B582B000AF78600B46FB707B68184695
:1040400000F0D2F97B6800221A737B68FA785A7301
:1040500000BF0837BD4680BD80B584B000AF786032
:104060007B68FB60FB68002B02D10B4801F00EFB64
:10407000FB681B7B002B0AD0FB685B7B03F0010312
:10408000002B02D0FB6800221A73002300E0FB68BB
:1040900018461037BD4680BDDCB9000880B582B037
:1040A00000AF786039607B68002B02D1064801F0D0
:1040B000EDFA7A680549386801F086FD034618462E
:1040C0000837BD4680BD00BFDCB900085940000874
:1040D00080B584B000AF78607B681B68FB60FB68CC
:1040E000184601F08FFEB860BB68002B0CBF01239F
:1040F0000023DAB2FB681A7300BF1037BD4680BDDB
:1041000080B582B000AF78607B68002B02D10C488C
:1041100001F0BCFA7B685B7B03F00103002B04D049
:104120007968084802F01AFB06E07B6801221A73DE
:104130007B68184601F066FE00BF0837BD4680BDAB
:10414000DCB90008D140000880B582B000AF7860CB
:104150007B68002B02D1074801F098FA7B680022A7
:104160001A737B68184601F04DFE00BF0837BD4644
:1041700080BD00BFDCB9000880B59CB000AF78609E
:10418000396007F14C03184601F0A0FC012387F8C1
:104190006F3007F14C0319467868FFF77FFFB86668
:1041A000BB6E002B4ED03B68002B3CD007F1340394
:1041B000184601F08BFC07F10C0300223968184601
:1041C00001F054FF07F1340207F10C0318331146D4
:1041D0001846FFF763FF78667B6E002B1DD0BA6E22
:1041E0007B6E1343184601F079FE97F85830022B86
:1041F00006D097F84030022B02D0154801F046FA5D
:1042000097F85830022B0CBF0123002387F86F303A
:1042100007F13403184601F047FD07F10C03184677
:1042200001F07AFF09E0B86E01F058FE97F85830B7
:10423000022B02D0064801F029FA07F14C03184678
:1042400001F032FD97F86F3018467037BD4680BDDB
:10425000ECB9000880B582B000AF786039607B6847
:10426000002B02D03B68002B02D1124801F00EFA5D
:104270007B681A4600231360536093607B680822B2
:104280005A727B6800221A617B683A68DA607B6840
:10429000243301211846FFF7CBFE7B68143301213C
:1042A0001846FFF7C5FE7B6800225A6300BF083737
:1042B000BD4680BDFCB9000890B589B000AFF8607C
:1042C000B9601346FB71FB68002B02D0BB68002B62
:1042D00002D1174801F0DAF9BB687B6107F11403DA
:1042E0001946002002F0E8F8F861FB69002B1AD0AB
:1042F000FB695B69BB61BB69002B03D0BB691B68B1
:10430000002B02D10A4801F0C1F9B969F868FFF73A
:10431000A1FFBB691C68FB6999697A69FB79F86838
:10432000A047034600E0062318462437BD4690BD4B
:10433000FCB9000880B588B000AFF860B9607A6059
:10434000FB68002B02D1274801F0A0F9FB68DB686D
:10435000BB61BB69002B03D0BB69DB68002B02D1BA
:10436000204801F093F9FB685B6B7B61BB69DB68FC
:104370007A68B968F8689847F861FB69002B2BDB0D
:104380007B69002B28D021E0FB681433796918463B
:10439000FFF7F2FE034683F00103DBB2002B1AD1D4
:1043A000BB69DB68FA69B9688818FA6979688A1A9A
:1043B0000146F868984738613B69002B02DA3B698F
:1043C000FB6109E0FA693B691344FB61FA697B68A8
:1043D0009A42D9D300E000BFFB6918462037BD469A
:1043E00080BD00BFFCB9000880B483B000AF786026
:1043F0007B681A1D7B681A607B6800225A607B68A4
:104400005A687B685A607A687B689A6000BF0C378C
:10441000BD4680BC704700BF80B483B000AF7860F9
:1044200039603B687A685A607B681A683B681A6032
:104430003B681B683A685A603B685B683A681A6078
:1044400000BF0C37BD4680BC704700BF80B582B04E
:1044500000AF786039607B6839681846FFF7DCFF89
:1044600000BF0837BD4680BD80B582B000AF786020
:1044700039607B6804335B6839681846FFF7CCFF06
:1044800000BF0837BD4680BD80B584B000AF7860FE
:1044900039603968786800F051F80346002B01D084
:1044A00001F0ECF87B6804335B68FB607B681B6899
:1044B000BB600EE0BB6893F908203B6893F90830B5
:1044C0009A4203DABB685B68FB6007E0BB681B6865
:1044D000BB607B681A1DBB689A42EBD13968F868EB
:1044E000FFF79AFF00BF1037BD4680BD80B582B090
:1044F00000AF78607B68002B02D10E4801F0C6F84F
:104500007B685B68002B03D07B681B68002B02D1A3
:10451000094801F0BBF87B685B687A6812681A602A
:104520007B681B687A6852685A6000BF0837BD46CE
:1045300080BD00BF0CBA00081CBA000880B485B06A
:1045400000AF786039600023FB607B681B68BB604C
:1045500009E0BA683B689A4202D1BB68FB6007E099
:10456000BB681B68BB607B681A1DBB689A42F0D1B0
:10457000FB6818461437BD4680BC704780B582B0D2
:1045800000AF0B48FFF730FF0A4800F09BFF0A4AD4
:104590000A4BD31A7B607B68002B05D000230022D6
:1045A0007968064800F092F900BF0837BD4680BD23
:1045B000B8170020C41700200C2500200C1F002075
:1045C00080B584B000AF78600B467B807B68002BA1
:1045D00002D1194801F05AF87B8803F440737B80BC
:1045E0000023FB737B681B68BB60BB68002B0DD18D
:1045F000124BBB600AE0BB689A897B8813409BB270
:104600007A889A4202D10123FB730CE0BB681B68D5
:104610000B4A934202D0BB681B6800E00023BB60DA
:10462000BB68002BE7D17B68BA681A60FB7B184631
:104630001037BD4680BD00BF2CBA0008B817002057
:10464000BC17002080B588B000AF78607B68002B75
:1046500002D1334801F01AF87B685B8BFB83FB8B3C
:10466000002B11D0FB8B01331B017A681344BB6113
:10467000BB691B89002B02D02A4801F007F8BB69EF
:104680005A897B685A8345E07B68DB89FB82FB8A19
:1046900001331B017A6813443B617B68DB8BFB8130
:1046A000FB89002B02D1204800F0F0FFFB89013389
:1046B0001B017A681344BB60BB685A683B699A4225
:1046C00002D2194800F0E2FF3B6910333B61BB683E
:1046D0005A683B699A4216D2BB685A68BB681B6825
:1046E0001A443B699A4202D80F4800F0CFFFBB68DA
:1046F0001B683A69B9684968521A9A1ABB681A6005
:10470000BB683A695A607B68DB895A1C91B27A6847
:10471000D181FB83FB8B18462037BD4680BD00BF8F
:104720002CBA00084CBA00083CBA000880B586B024
:1047300000AF78600B467B807B68002B02D1394844
:1047400000F0A4FF7B68DB89FB827A88FB8A9A42AF
:1047500002D3354800F09AFF7B8801331B017A6849
:1047600013443B617A88FB8A013B9A4244D17B68BF
:10477000DB891A467B689B8B5B089BB201339A42AC
:104780003ADD3B691A460023136053609360D3609F
:104790007B68DB89013B9AB27B68DA817B68DB89C5
:1047A000012B02D8204800F071FF7B68DB8BFB8176
:1047B000FB89002B30D0FB8901331B017A6813443D
:1047C000BB607B68DB8901331B017A681A44BB68D4
:1047D0005B68103B9A4202D0134800F057FFBB6859
:1047E0001B6803F11002BB681A60BB685B68A3F129
:1047F0001002BB685A600FE07B68598B3B691A4610
:104800000023136053609360D3603B690A465A816A
:104810007B687A885A8300E000BF00BF1837BD4626
:1048200080BD00BF2CBA00083CBA000880B586B035
:1048300000AFF860B9607A603B60FB68002B02D182
:10484000204800F023FF3B680F2B02D81E4800F0E1
:104850001DFFBB68002B05D0FB68DB891A46BB68CF
:104860009A4202D8184800F011FFFB685A697B6829
:104870009A4202D3144800F009FF7A683B681A4450
:10488000FB685969FB681B690B449A4202D90E48C0
:1048900000F0FCFEBB6801331B01FA6813447B6126
:1048A0007B691A460023136053609360D3607B6971
:1048B0003A681A607B697A685A6000BF1837BD464B
:1048C00080BD00BF2CBA00083CBA000880B586B095
:1048D00000AFF860B9603B601346FB80BB68202BDB
:1048E00002D82F4800F0D2FEFB8803F44073FB800F
:1048F000FB687B613B6859B27B691A4600231360F1
:10490000536093607B690A461A727B6904225A726B
:104910007B69FA889A817B690222DA817B6910338C
:1049200000221A605A609A60DA607B69BA681A617C
:104930007B69FA685A617B6901221A837B690122CB
:10494000DA8330233B61BA683B699A4202D8144843
:1049500000F09CFEFA683B69D118BA683B69D31A2B
:104960000A4601217869FFF761FF0E4800F006FE54
:104970007B6919460C48FFF7E1FD0346002B02D086
:10498000074800F083FE7B6919460748FFF77CFD66
:10499000044800F05DFE7B6918461837BD4680BDAF
:1049A0003CBA0008C4170020B817002080B58AB0B0
:1049B00000AFF860B9607A603B60FB68002B02D101
:1049C000374800F063FEBB680F2B02D8354800F073
:1049D0005DFE7B68002B02D1314800F057FE3B683A
:1049E000002B02D12E4800F051FE00237B620023F1
:1049F0007B84FB681B8B3B8439E03B8C01331B01C0
:104A0000FA681344BB61BB691A68BB689A4205D255
:104A10003B8C7B84BB695B893B8428E0BB697B6200
:104A2000BB691B89FB831CE0FB8B01331B01FA680C
:104A300013447B617B691A687B6A1B689A4202D3C4
:104A4000194800F023FE7B691A68BB689A420CD3B0
:104A50003B8C7B84FB8B3B847B697B627B6A1B8901
:104A6000FB83FB8B002BDFD104E000BF02E03B8C1B
:104A7000002BC2D17B6A002B07D07B6A1A68BB6807
:104A80009A4202D2074800F001FE7B683A8C1A80F5
:104A90003B687A8C1A807B6A18462837BD4680BDF1
:104AA0002CBA00083CBA00084CBA000880B588B09F
:104AB00000AFF8600B467A607B81FB68002B02D167
:104AC000244800F0E3FD7B89002B02D1224800F04E
:104AD000DDFD7B68002B02D11E4800F0D7FD7B89ED
:104AE00001331B01FA681344BB610023FB83FB689D
:104AF0001B8BBB8326E0BA8B7B899A4204D17B68EF
:104B0000FA8B1A80012321E0BB8BFB83BB8B013323
:104B10001B01FA6813447B617B691A68BB691B68D7
:104B20009A4203D17B699B89BB830BE0BB691A68FE
:104B30007B691B689A4202D27B691B8901E07B6911
:104B40005B89BB83BB8B002BD5D100231846203754
:104B5000BD4680BD2CBA00083CBA000880B586B0BE
:104B600000AF78600B467B8013463B807B68002B50
:104B700002D1344800F08AFD7B88002B02D13248F4
:104B800000F084FD3B887A681B01134418331B88AE
:104B90007A889A420BD03B887A681B0113441A33F7
:104BA0001B887A889A4202D0274800F06FFD7B88E4
:104BB00001331B017A6813447B617B695B897B82CB
:104BC0007B8A002B02D1204800F060FD7B8A0133F4
:104BD0001B017A681344FB60FB681A897B695A8160
:104BE000FB687A881A813B88002B1AD03B880133F6
:104BF0001B017A681344BB60BB681B897A889A42A0
:104C000003D1BB687A8A1A8116E0BB685B897A880F
:104C10009A4202D00C4800F039FDBB687A8A5A816A
:104C20000AE07B681B8B7A889A4202D0064800F023
:104C30002DFD7B687A8A1A837B8A18461837BD4611
:104C400080BD00BF2CBA00083CBA000880B586B011
:104C500000AF78600B467B8013463B807B68002B5F
:104C600002D1344800F012FD7B88002B02D132487B
:104C700000F00CFD3B887A681B01134418331B8835
:104C80007A889A420BD03B887A681B0113441A3306
:104C90001B887A889A4202D0274800F0F7FC7B886C
:104CA00001331B017A6813447B617B691B897B821A
:104CB0007B8A002B02D1204800F0E8FC7B8A01337C
:104CC0001B017A681344FB60FB685A897B691A816F
:104CD000FB687A885A813B88002B1AD03B880133C5
:104CE0001B017A681344BB60BB681B897A889A42AF
:104CF00003D1BB687A8A1A8116E0BB685B897A881F
:104D00009A4202D00C4800F0C1FCBB687A8A5A81F2
:104D10000AE07B681B8B7A889A4202D0064800F032
:104D2000B5FC7B687A8A1A837B8A18461837BD4699
:104D300080BD00BF2CBA00083CBA000880B586B020
:104D400000AF78600B467B8013463B807B68002B6E
:104D500002D16A4800F09AFC7B88002B02D1684897
:104D600000F094FC3B887A681B01134418331B88BD
:104D70007A889A4214D03B887A681B0113441A330C
:104D80001B887A889A420BD03B887A681B011344AF
:104D90001C331B887A889A4202D0594800F076FC6E
:104DA00000237B750023FB827B8801331B017A681B
:104DB00013443B613B699B89002B30D03B699B8945
:104DC000FB82FB8A01331B017A681344FB60FB689A
:104DD0001A683B691B689A4202D04A4800F056FCA8
:104DE000FB681B89002B03D1FB685B89002B02D079
:104DF000444800F04BFC3B691A89FB681A813B6907
:104E00005A89FB685A813B6900229A813B699A89D9
:104E10003B695A813B695A893B691A811BE03B69AE
:104E20001B89002B08D03A887B8819467868FFF7E1
:104E30000DFF03463B800CE03B695B89002B09D0EA
:104E40003A887B8819467868FFF788FE03463B80DE
:104E500000BFE4E700BF3B691B89002B03D13B691E
:104E60005B89002B02D0264800F010FC3B88002B09
:104E70000BD17B681B8B7A889A4202D0204800F0C5
:104E800005FC7B68FA8A1A8333E03B8801331B01F7
:104E90007A681344BB60BB681A683B691B689A4216
:104EA0000DD1BB689B897A889A4202D0154800F0E0
:104EB000EDFBBB68FA8A9A8101237B7519E03B8878
:104EC00001331B017A681344BB60BB681B897A8875
:104ED0009A4203D1BB68FA8A1A810AE0BB685B89EF
:104EE0007A889A4202D0064800F0D0FBBB68FA8A62
:104EF0005A8100BF1837BD4680BD00BF2CBA0008DC
:104F00003CBA00084CBA000880B586B000AF7860A3
:104F10000B467B807B68002B02D1344800F0B6FB47
:104F20007B88002B02D1324800F0B0FB7B88013334
:104F30001B017A681344FB600023FB827B681B8B98
:104F4000BB82BB8A002B03D17B687A881A8349E035
:104F5000BA8AFB8A9A4202D1264800F097FBBB8AA4
:104F600001331B017A681344BB60FB681A68BB6895
:104F70001B689A4209D2BB681B897B827B8A002B03
:104F800024D1BB687A881A812CE0FB681A68BB6858
:104F90001B689A4209D9BB685B897B827B8A002B9C
:104FA00014D1BB687A885A811CE0FB681A68BB6818
:104FB0001B689A4202D00E4800F068FBBB689A89D1
:104FC000FB689A81BB687A889A810BE0BB8AFB8276
:104FD0007B8ABB827B681B8BBA8A9A42B8D1054810
:104FE00000F054FB00BF1837BD4680BD2CBA000846
:104FF0003CBA00084CBA000880B588B000AF7860B1
:1050000039607B68002B02D1394800F03FFB3B68D8
:105010000F2B02D8374800F039FB3B6803F00F0331
:10502000002B02D0334800F031FB0023FB6107F175
:105030000E0307F10C0239687868FFF7B7FC786156
:105040007B69002B4ED07B691A683B689A4202D27A
:10505000284800F01BFB7B695A687B6919683B682C
:10506000CB1A1344FB61BB89FA8919467868FFF7AC
:1050700065FE7B691A683B689A4222D100237B83D4
:105080007B8B01331B017A6813443B613B69DB89ED
:10509000002B02D1174800F0F9FA3B69DA89BB8985
:1050A0009A420AD17B69DA893B69DA8100BFBB8900
:1050B00019467868FFF73AFB0EE03B69DB897B8392
:1050C000DEE77B691A683B68D21A7B691A60BB8984
:1050D00019467868FFF718FF7B689B8B01339AB2FB
:1050E0007B689A83FB6918462037BD4680BD00BFA8
:1050F0002CBA00083CBA000880B58EB000AFF8604A
:10510000B9607A60FB68002B02D19A4800F0BEFAC1
:105110007B680F2B02D8984800F0B8FA7B6803F040
:105120000F03002B02D0944800F0B0FA002387F858
:1051300037300023BB86FB68DB8B7B86E6E0FB68B1
:10514000DB897A8E9A4202D38C4800F09FFA7B8EDC
:1051500001331B01FA681344FB62FB6A5A68FB6A5D
:105160001B681A44BB689A4205D27B8EBB86FB6AD9
:10517000DB897B86CAE0FB6A5A68FB6A1B681A44B3
:10518000BB689A4265D107F114027B8E1946F86814
:10519000FFF78CFC034683F00103DBB2002B02D047
:1051A000764800F073FABA8A7B8E1946F868FFF7E2
:1051B000C5FDFB6A1A687B681A44FB6A1A60FB6AC1
:1051C000DB89002B3FD0FB6ADB897B857B8D01333C
:1051D0001B01FA6813447B62BA687B681A447B6AD5
:1051E0005B689A4202D9654800F050FABA687B6859
:1051F0001A447B6A5B689A4225D1FB6A1A687B6A0B
:105200001B681A44FB6A1A6007F114027B8D194669
:10521000F868FFF74BFC034683F00103DBB2002B79
:1052200002D0564800F032FABA8A7B8D1946F868E7
:10523000FFF784FD7B6ADA89FB6ADA817B8D194688
:10524000F868FFF773FA7B8E1946F868FFF75CFE83
:1052500058E0BA687B681A44FB6A5B689A4224D1BA
:1052600007F112027B8E1946F868FFF71FFC034610
:1052700083F00103DBB2002B02D0404800F006FAB5
:105280007A8A7B8E1946F868FFF758FDFB6ABA6880
:105290005A60FB6A1A687B681A44FB6A1A607B8E44
:1052A0001946F868FFF730FE2CE0BA687B681A44AC
:1052B000FB6A5B689A4222D2F868FFF7C3F903469B
:1052C0007B84798C7B68BA68F868FFF7AFFABB8E8D
:1052D00001331B01FA681344FB61FB697A8CDA81A4
:1052E0007B8C01331B01FA681344BB61BB697A8E66
:1052F000DA817B8C1946F868FFF706FE02E01F484A
:1053000000F0C4F9012387F8373003E07B8E002BCF
:105310007FF415AF97F8373083F00103DBB2002B31
:1053200016D0F868FFF78EF90346FB82F98A7B688E
:10533000BA68F868FFF77AFABB8EFA681B01134463
:105340001E33FA8A1A80FB8A1946F868FFF7DCFDDB
:10535000FB689B8B002B02D1074800F097F9FB6894
:105360009B8B013B9AB2FB689A8300BF3837BD46DE
:1053700080BD00BF2CBA00083CBA00084CBA000837
:1053800080B586B000AF78600B467B80224800F085
:10539000F5F800237B610023FB6029E07B6808337C
:1053A0003B613B690F3323F00F033B61FB683969B5
:1053B0001846FFF721FE78617B69002B18D07B69C6
:1053C0003A691A607A693B695A407B695A607B691D
:1053D00008337B617B8803F00103002B13D07A69CB
:1053E0007B681344002219467869FEF7D7FB0AE070
:1053F0007A8807F10C0311461846FFF7E1F80346D7
:10540000002BCBD100E000BF034800F021F97B69FD
:1054100018461837BD4680BDC417002080B588B037
:1054200000AF78600023FB77224800F0A7F8224BFA
:105430001B68BB612AE0BB697B617B695B693B617F
:105440007A683B699A421ED37B691B693A691A44A0
:105450007B689A4217D97B68083BFB60FB685A68F7
:10546000FB681968FB684B409A4202D0134800F071
:105470000DF9FB681B681A46F9687869FFF73CFE6E
:105480000123FB7706E0BB691B68BB61BB690C4A63
:105490009342D0D1074800F0DBF8FB7F83F0010393
:1054A000DBB2002B02D0054800F0F0F800BF203737
:1054B000BD4680BDC4170020B81700204CBA0008B4
:1054C000BC17002080B582B000AF78607B68002BED
:1054D00002D1094800F0DAF87B6800221A607B6884
:1054E00000225A607B6808331846FEF77DFF00BF34
:1054F0000837BD4680BD00BF60BA000880B584B0E3
:1055000000AF78607B68FB60FB68002B02D1184815
:1055100000F0BCF8FB681B68002B0FD1FB685B68D0
:10552000002B02D0134800F0B1F8FB6801225A604A
:10553000114B1A68FB681A60002315E0FB681A68B3
:105540000D4B1B689A420DD1FB685B68002B02D1A2
:10555000084800F09BF8FB685B685A1CFB685A60BF
:10556000002301E0FB68083318461037BD4680BDB4
:1055700060BA000870BA00085019002080B58AB0DF
:1055800000AF78607B68002B02D1154800F07EF8F0
:1055900007F10C03184600F099FA07F10C037A683A
:1055A0001049184600F010FB78627B6A002B0DD082
:1055B000786A00F093FC3B7E022B02D00A4800F090
:1055C00065F807F10C03184600F06EFB7B681A685B
:1055D000064B1B689A42E0D100BF2837BD4680BD0C
:1055E00060BA0008FD54000870BA00085019002085
:1055F00080B584B000AF78607B681B68FB60FB6897
:105600001A68114B1B689A4202D0104800F03EF80D
:10561000FB685B68002B02D10C4800F037F8FB6890
:105620005B685A1EFB685A60FB685B68002B07D1F9
:10563000FB6800221A60FB680833184600F0E2FBA2
:1056400000BF1037BD4680BD5019002080BA000849
:1056500080B582B000AF78607B68002B02D105482E
:1056600000F014F87968044801F078F800BF0837B2
:10567000BD4680BD60BA0008F155000880B500AF96
:10568000014800F003F800BF8CBA000880B582B072
:1056900000AF786001F004FB80B582B000AF7860A5
:1056A00000217B680A461A817B680A46DA807B689B
:1056B0001B69002B04D07B681B691846FEF720FD90
:1056C00000BF0837BD4680BD80B584B000AFF8602C
:1056D000B9603B601346FB80FB68002B02D0BB68BF
:1056E000002B02D11348FFF7D1FFFB88002B02D11A
:1056F0001148FFF7CBFFFB88013B99B2FB681A46C4
:105700000023136053609360D3601361FB68BA6831
:105710001A60FB680A469A80FB683A68DA60FB68A0
:10572000BA691A61F868FFF7B7FF00BF1037BD46C6
:1057300080BD00BF9CBA0008ACBA000880B588B034
:1057400000AFF860B9607A60FB68002B02D0BB68DC
:10575000002B02D12148FFF799FF0023FB61FB6872
:10576000DB889BB2BB6122E0FB689B881A46BB6961
:105770009A4202D9BB69013300E000237B61FB68D8
:105780001B899BB21A467B699A4215D0FB681A683E
:10579000BB691A44FB69591CF961B9680B441B7851
:1057A00013707B699AB2FB68DA807B69BB61FA6926
:1057B0007B689A42D8D300E000BFFB69002B08D079
:1057C000FB68DB68002B04D0FB68DB681846FEF73B
:1057D00097FCFB6918462037BD4680BD9CBA00087F
:1057E00080B586B000AFF860B9607A60FB68002BC6
:1057F00002D0BB68002B02D12048FFF747FF0023EF
:105800007B6123E0FB681B899BB23B61FB68DB8803
:105810009BB21A463B699A421DD07B695A1C7A6139
:10582000BA681344FA6811683A690A4412781A701F
:10583000FB689B881A463B699A4204DD3B699BB230
:1058400001339AB200E00022FB681A817A697B6812
:105850009A42D7D300E000BF7B69002B08D0FB68D9
:105860001B69002B04D0FB681B691846FEF748FC37
:105870007B6918461837BD4680BD00BF9CBA00083A
:1058800080B582B002AF1B48FEF7AEFD1A48FEF7A6
:10589000ABFD1A4B1A460023136053609360174BFD
:1058A00001225A72154B00221A73154B1B68134ABA
:1058B0009361124B00221A61124B1B680F4A53610D
:1058C0001148FEF791FD114B0C4A1A600B49104824
:1058D00000F044FF002301930E4B00934FF48073BC
:1058E0000D4A6FF07F010D4800F096F800BFBD46ED
:1058F00080BD00BFD8170020E41700202019002029
:105900005C0F0020600F00203C190020501900207F
:1059100021590008AD6C0008F0170020F018002095
:1059200080B584B000AF78607B681B68FB60FB6863
:105930001B7B002B02D00848FFF7A8FEFB68194626
:105940000648FEF7A1FDFB6801221A7301F09CF9DD
:1059500000BF1037BD4680BDBCBA0008D817002074
:1059600080B586B000AF78607B681B68FB60FB6821
:105970001B7B012B02D01E48FFF788FEFB681946EF
:105980001C48FEF7DBFD0346002B02D11A48FFF747
:105990007DFEFB681846FEF7A9FDFB6800221A731E
:1059A00000237B61FB681C331B683B610FE03B6994
:1059B000BB60BB681A69FB689A4205D0BB687B6113
:1059C000786900F08BF908E03B691B683B61FB6874
:1059D00003F120023B699A42E9D17B69002B00D098
:1059E000DEE700BF01F050F900BF1837BD4680BDAB
:1059F000BCBA0008D8170020CCBA000880B500AFA8
:105A0000034B1B681946034800F0A8FEFFF736FE5B
:105A1000501900206159000880B584B000AFF860CB
:105A2000B9607A603B607A683B681344CC221946BF
:105A30007868FEF7B3F8BB6859B2FB681A460023D2
:105A4000136053609360FB680A461A72FB68012278
:105A50005A72FB6800221A73FB687A689A617A6846
:105A60003B68134423F007031A46FB681A61FB687E
:105A70000022DA62FB68DA6AFB689A62FB681C3310
:105A80001846FEF7B1FCF969BA690D4BF86800F0E9
:105A900073FEFB681A69FB689B699A4204D97B68AC
:105AA0001B68B3F1CC3F02D00648FFF7EFFDF96861
:105AB000054800F053FE00BF1037BD4680BD00BF53
:105AC000FD590008DCBA00082159000880B582B0F1
:105AD00000AF78607B68002B02D10948FFF7D6FD44
