:020000040800F2
:10000000E02C002051010008BD010008BD010008DE
:10001000BD010008BD010008BD010008000000008E
:10002000000000000000000000000000ED3E00089D
:10003000BD01000800000000D53E0008913F000807
:10004000BD010008BD010008BD010008BD01000898
:10005000BD010008BD010008C5470008E9470008C8
:100060000D4800083148000855480008BD01000847
:10007000BD010008BD010008BD010008BD01000868
:10008000BD010008BD010008BD010008BD01000858
:10009000BD010008BD010008BD0100087948000845
:1000A000BD010008BD010008BD010008BD01000838
:1000B000BD010008BD010008BD010008954700080A
:1000C000A1470008AD470008B9470008BD01000876
:1000D000BD0100084D450008594500086545000868
:1000E000B1480008BD010008BD0100080000000083
:1000F0000000000000000000000000000000000000
:100100000000000000000000BD010008BD01000863
:10011000BD010008BD010008BD010008BD010008C7
:10012000BD010008BD010008BD010008BD010008B7
:10013000BD010008BD010008BD010008BD010008A7
:10014000BD010008BD010008BD01000861490008AB
:1001500008B50F4B83F30988022383F31488002228
:100160000C490D4802F028FD0C4A0D490D4802F0DB
:1001700015FD00220C490D4802F01EFD0C4A0D49E8
:100180000D4802F00BFD06F0ABFB02F0F9FCFEE7B8
:10019000E03C0020DC230020F80F0020EC78000871
:1001A000F80F0020A40F0020DC230020DC23002017
:1001B00040790008DC230020DC23002008B503F090
:0401C000E9FF00BF94
:1001C40002000000C91D0008020000003D1F0008D5
:1001D40000000000D120000801000000E524000810
:1001E40000000000D53C000803000000E5570008AB
:1001F40010B5444C0121204602F012FE424B1C6013
:1002040001211A2004F020F805211A2003F0CAFF66
:1002140001211B2004F018F805211B2003F0C2FF64
:100224000121112004F010F80521112003F0BAFF78
:100234000121122004F008F80521122003F0B2FF76
:1002440001211C2004F000F805211C2003F0AAFF62
:1002540001211D2003F0F8FF05211D2003F0A2FF5A
:100264000121072003F0F0FF0521072003F09AFF86
:100274000121242003F0E8FF0521242003F092FF4C
:100284000121052003F0E0FF0521084603F08AFF61
:100294000121062003F0D8FF0521062003F082FF88
:1002A4000121252003F0D0FF0521252003F07AFF4A
:1002B4000121102003F0C8FF0521102003F072FF74
:1002C4000121032003F0C0FF0521032003F06AFF8E
:1002D4000121042003F0B8FF0521042003F062FF8C
:1002E4000121084603F0B0FF0521012003F05AFF65
:1002F4000121022003F0A8FF0521022003F052FF90
:1003040010BD00BFFC0F0020F80F0020704700BF95
:1003140038B50C46154610B1012843D038BD11F04C
:10032400010F07D012F0010F0CBF012100211A2088
:1003340003F08AFF14F0020F07D015F0020F0CBF70
:10034400012100211B2003F07FFF14F0040F07D0CC
:1003540015F0040F0CBF01210021112003F074FFDC
:1003640014F0080F07D015F0080F0CBF012100216D
:10037400122003F069FF14F0100F07D015F0100FCE
:100384000CBF012100211C2003F05EFF14F0200F9C
:100394004AD015F0200F0CBF012100211D2003F0CD
:1003A40053FF38BD11F0010F07D012F0010F0CBF3D
:1003B40001210021072003F047FF14F0020F07D0AA
:1003C40015F0020F0CBF01210021242003F03CFF93
:1003D40014F0040F07D015F0040F0CBF0121002105
:1003E400052003F031FF14F0080F07D015F0080FB3
:1003F4000CBF01210021062003F026FF14F0100F8A
:1004040007D015F0100F0CBF01210021252003F0A7
:100414001BFF14F0200F07D015F0200F0CBF012193
:100424000021102003F010FF38BD00BF10B510B13B
:1004340001280AD013E00324204603F015FF002806
:10044400FAD0042003F010FF10BD0124204603F06D
:100454000BFF0028FAD0022003F006FF10BD012094
:1004640010BD00BF2DE9F04FA5B005460C46002392
:100474000393039B132B05D8039B01330393039B23
:10048400132BF9D92846FFF7D1FF8146002800F045
:100494002C8215B1012D41D080E00021042003F00D
:1004A400D3FE00230493049B132B05D8049B013330
:1004B4000493049B132BF9D90021032003F0C4FEF9
:1004C40000230593059B132B05D8059B0133059346
:1004D400059B132BF9D900230693069B132B05D8F0
:1004E400069B01330693069B132BF9D901210320A4
:1004F40003F0AAFE00230793079B132B05D8079B41
:1005040001330793079B132BF9D9042003F0ACFEA6
:100514000190032003F0A8FE81463FE00021022061
:1005240003F092FE00230893089B132B05D8089B25
:1005340001330893089B132BF9D90021012003F000
:1005440083FE00230993099B132B05D8099B0133D0
:100554000993099B132BF9D900230A930A9B132BA4
:1005640005D80A9B01330A930A9B132BF9D901215D
:10057400084603F069FE00230B930B9B132B05D84D
:100584000B9B01330B930B9B132BF9D9022003F024
:100594006BFE0190012003F067FE8146B9F1000F64
:1005A40000F0A38108274FF000084FF0040B4646E3
:1005B4004FF0030A84EA080804F0010115B1012D83
:1005C4003BD075E0584603F03FFE0C960C9B132B72
:1005D40005D80C9B01330C930C9B132BF9D9314692
:1005E400504603F031FE0D960D9B132B05D80D9B41
:1005F40001330D930D9B132BF9D90E960E9B132BE0
:1006040005D80E9B01330E930E9B132BF9D90121B0
:10061400504603F019FE0F960F9B132B05D80F9B22
:1006240001330F930F9B132BF9D9584603F01CFE8B
:100634000190504603F018FE3BE0022003F004FE54
:100644001096109B132B05D8109B01331093109B0D
:10065400132BF9D93146012003F0F6FD1196119BB5
:10066400132B05D8119B01331193119B132BF9D92B
:100674001296129B132B05D8129B01331293129BD3
:10068400132BF9D90121084603F0DEFD1396139BC1
:10069400132B05D8139B01331393139B132BF9D9F5
:1006A400022003F0E1FD0190012003F0DDFD00E0F4
:1006B4004846002800F015816408013F7FF47AAFB2
:1006C40088F0010808F0010115B1012D42D083E042
:1006D400042003F0B9FD00231493149B132B05D8B5
:1006E400149B01331493149B132BF9D90021032079
:1006F40003F0AAFD00231593159B132B05D8159B16
:1007040001331593159B132BF9D900231693169BCC
:10071400132B05D8169B01331693169B132BF9D96B
:100724000121032003F090FD00231793179B132B43
:1007340005D8179B01331793179B132BF9D9042062
:1007440003F092FD032003F08FFD8146002800F0A2
:10075400CC8046E0022003F077FD00231893189B19
:10076400132B05D8189B01331893189B132BF9D915
:100774000021012003F068FD00231993199B132B1A
:1007840005D8199B01331993199B132BF9D900230D
:100794001A931A9B132B05D81A9B01331A931A9B8D
:1007A400132BF9D90121084603F04EFD00231B93B6
:1007B4001B9B132B05D81B9B01331B931B9B132BD8
:1007C400F9D9022003F050FD012003F04DFD8146CC
:1007D400002800F08A8044E01DB1012D40F08380A0
:1007E4003FE00121042003F02FFD00231C931C9BF8
:1007F400132B05D81C9B01331C931C9B132BF9D979
:100804000021032003F020FD00231D931D9B132BC7
:1008140005D81D9B01331D931D9B132BF9D9002370
:100824001E931E9B132B05D81E9B01331E931E9BE8
:10083400132BF9D90121032003F006FD00231F9394
:100844001F9B132B05D81F9B01331F931F9B132B37
:10085400F9D9042003F008FD8146032003F004FDC8
:1008640043E00121022003F0EFFC00232093209BAE
:10087400132B05D8209B01332093209B132BF9D9EC
:100884000021012003F0E0FC00232193219B132B82
:1008940005D8219B01332193219B132BF9D90023E4
:1008A4002293229B132B05D8229B01332293229B54
:1008B400132BF9D90121084603F0C6FC0023239326
:1008C400239B132B05D8239B01332393239B132BA7
:1008D400F9D9022003F0C8FC8146012003F0C4FCCE
:1008E40003E0814601E0DDF80490484625B0BDE808
:1008F400F08F00BF2DE9F04FA5B08146019100268D
:100904003446B34601273546B9F1000F03D0B9F197
:10091400010F3DD079E03946042003F095FC04959D
:10092400049B132B05D8049B01330493049B132BC2
:10093400F9D92946032003F087FC0595059B132B61
:1009440005D8059B01330593059B132BF9D906950F
:10095400069B132B05D8069B01330693069B132B8A
:10096400F9D93946032003F06FFC0795079B132B35
:1009740005D8079B01330793079B132BF9D9042050
:1009840003F072FC8246032003F06EFC80463DE0D7
:100994003946022003F058FC0895089B132B05D810
:1009A400089B01330893089B132BF9D92946384631
:1009B40003F04AFC0995099B132B05D8099B0133C5
:1009C4000993099B132BF9D90A950A9B132B05D874
:1009D4000A9B01330A930A9B132BF9D939463846EB
:1009E40003F032FC0B950B9B132B05D80B9B0133A7
:1009F4000B930B9B132BF9D9022003F035FC824691
:100A0400384603F031FC804600E0B846B8F1000FE8
:100A140004D1B6F1FF3F40F0E581DAE16408BAF1B0
:100A2400000F04D064F07F04E4B28BF0010B0136B4
:100A3400082E7FF469AFCCE10121042003F004FC0B
:100A440000230C930C9B132B05D80C9B01330C93A4
:100A54000C9B132BF9D90021032003F0F5FB002391
:100A64000D930D9B132B05D80D9B01330D930D9BFB
:100A7400132BF9D900230E930E9B132B05D80E9B31
:100A840001330E930E9B132BF9D90121032003F09C
:100A9400DBFB00230F930F9B132B05D80F9B013314
:100AA4000F930F9B132BF9D9042003F0DDFB82462F
:100AB400032003F0D9FB80463FE00121022003F02C
:100AC400C3FB00231093109B132B05D8109B0133F9
:100AD4001093109B132BF9D90021012003F0B4FBD0
:100AE40000231193119B132B05D8119B01331193F0
:100AF400119B132BF9D900231293129B132B05D8A6
:100B0400129B01331293129B132BF9D9012108462E
:100B140003F09AFB00231393139B132B05D8139B09
:100B240001331393139B132BF9D9022003F09CFB7D
:100B34008246012003F098FB8046B8F1000F00F0D4
:100B440051818BF0010505F00105554540F03B81CD
:100B5400B9F1000F03D0B9F1010F41D081E00121B7
:100B6400042003F071FB00231493149B132B05D86A
:100B7400149B01331493149B132BF9D900210320E4
:100B840003F062FB00231593159B132B05D8159BCB
:100B940001331593159B132BF9D900231693169B38
:100BA400132B05D8169B01331693169B132BF9D9D7
:100BB4000121032003F048FB00231793179B132BF9
:100BC40005D8179B01331793179B132BF9D90420CE
:100BD40003F04AFB0546032003F046FB804642E04F
:100BE4000121022003F030FB00231893189B132BE0
:100BF40005D8189B01331893189B132BF9D900219E
:100C0400012003F021FB00231993199B132B05D812
:100C1400199B01331993199B132BF9D900231A93A8
:100C24001A9B132B05D81A9B01331A931A9B132B67
:100C3400F9D90121084603F007FB00231B931B9BF2
:100C4400132B05D81B9B01331B931B9B132BF9D927
:100C5400022003F009FB0546012003F005FB804652
:100C640001E04FF00108B8F1000F00F0BB80002D47
:100C740000F0AC80B9F1000F03D0B9F1010F3FD0FF
:100C84007CE00021042003F0DFFA00231C931C9B6A
:100C9400132B05D81C9B01331C931C9B132BF9D9D4
:100CA4000021032003F0D0FA00231D931D9B132B76
:100CB40005D81D9B01331D931D9B132BF9D90023CC
:100CC4001E931E9B132B05D81E9B01331E931E9B44
:100CD400132BF9D90121032003F0B6FA00231F9343
:100CE4001F9B132B05D81F9B01331F931F9B132B93
:100CF400F9D9042003F0B8FA032003F0B5FA3DE073
:100D04000021022003F0A0FA00232093209B132B40
:100D140005D8209B01332093209B132BF9D9002164
:100D2400012003F091FA00232193219B132B05D872
:100D3400219B01332193219B132BF9D90023229367
:100D4400229B132B05D8229B01332293229B132B26
:100D5400F9D90121084603F077FA00232393239B52
:100D6400132B05D8239B01332393239B132BF9D9EE
:100D7400022003F079FA012003F076FA03252846CD
:100D840003F072FA80460028F9D000230393039BF2
:100D9400132B05D8039B01330393039B132BF9D91E
:100DA400B9F1000F03D0B9F1010F05D008E001211A
:100DB400042003F049FA03E00121022003F044FA7D
:100DC400019B1C700EE04FF000080BE04FF0000890
:100DD40008E0B9F1000F3FF42FAEB9F1010F3FF471
:100DE4006CAEAEE6404625B0BDE8F08F10B50446C3
:100DF40005F052FD204604F0D9FC10BD022B08D9A1
:100E040039B908B51146023B0232097800F05EF99F
:100E140008BD704708B500230376034A034901203F
:100E240003F03CF808BD00BF306D0008386D0008C1
:100E3400917901295FD1D279012A5ED12DE9F0435C
:100E440089B01C462F4804F0A1FE054600284BD06B
:100E5400A76800268DF815608DF816608DF8176068
:100E6400DFF8AC90DFF8A4802CE0A3685B792A7DDE
:100E74009A4238BF2B759DF81420012A02D0022A09
:100E84000AD01FE00DF117030DF116020DF1150143
:100E940006A805F0B7F915E03B79072B12D19DF8A8
:100EA40016209DF817108A420BD07B79387802906F
:100EB400019100924A464146002002F0EFFF0126CC
:100EC40000E0012605AA06A9204605F0FDF8002841
:100ED400CBD11EB101232B76284610E029460948C0
:100EE40004F068FE00200AE0074A0849022002F0E4
:100EF400D5FF002003E0002070470020704709B0B0
:100F0400BDE8F083481000207C6D0008386D0008AF
:100F1400406D000810B5084C02231C2221460748E6
:100F240004F01AFE00236376012384F83530044864
:100F340005F0B8F810BD00BF1010002048100020C4
:100F4400A40F002000B583B0009313460A46022183
:100F540005F086F903B05DF804FB00BF10B5044644
:100F6400104A1149012002F099FF0022114620691C
:100F740005F05AF920B90D4A0B49022002F08EFF00
:100F8400022323760A4A0F231370012300212069C8
:100F9400FFF7D8FF20B9074A0349022002F07EFF79
:100FA40010BD00BFAC6D0008386D0008B46D0008BA
:100FB4000C100020CC6D000808B5642802D8194B29
:100FC400185C24E0E32815D00AD8E02824D002D8FD
:100FD400652819D01AE0E1280AD0E2281ED015E0CD
:100FE400E5280BD008D3E6280AD0E7280AD00DE07C
:100FF40012200EE09F200CE094200AE0592008E023
:10100400912006E0A72004E0A72002E0FF20FF28AB
:1010140006D000F089FA08BD1420FAE71120F8E799
:1010240008BD00BFF86D000870B50E46154614687B
:101034000A4B1B6863400B420BD00C4214BF0121C6
:101044000021FFF7B9FF054A13685C4034405C4057
:101054001460296821EA0601296070BD98100020F7
:1010640008B502210846FFF751F904210C20FFF7C7
:101074004DF908210C20FFF749F900210C20FFF756
:1010840045F9104C204601F0BBFD2046FFF7AEFEAB
:10109400204604F0D9FFFFF73DFF00F06FFD00F09C
:1010A400F1FB204600F0FCF9204600F027FE06483C
:1010B40004F00AFD254600242146284601F0ECFDF3
:1010C400FAE700BF68100020606E00082DE9F84FB1
:1010D4001646082B28BF08231F463F4B93F8008071
:1010E40081EA080800254FF001099A4609FA05F437
:1010F400E4B218EA040F0FD09AF800301C42A5F1AC
:1011040020000CBF01210021C0B2FFF755FF9AF85F
:1011140000305C408AF800400135082DE6D1DFF844
:10112400C89009F1080A4C46DFF8C0B04FF0000837
:1011340009E013F8012B8A4202D09842F9D132E037
:101144000134544507D077B3217833788B42F7D0F4
:10115400731CF019F1E7C7B1354606EB070BDFF84E
:1011640088A00AF1070408E013F8012F8A4202D08C
:10117400A342F9D123E05D4507D015F8011B9AF885
:1011840000308B42F7D04B46EEE7144A0023184652
:101194009F428CBFF15C014602F8011F0133082B0A
:1011A400F6D1BDE8F88F25782B465A460C494046BF
:1011B40002F074FE41462846FFF7FEFEC0E715F82C
:1011C400018C4346074A0649002002F067FE0121CC
:1011D4004046FFF7F1FECEE79C1000209F10002050
:1011E400786E00087C6E0008A0100020706E000865
:1011F40008B5034620B919B905480078904206D0CD
:101204001846034B1A70494209B200F0A9FD08BD03
:101214009D10002070B586B006460C461546059311
:1012240002930192009103461E4A1F49012002F0D5
:1012340035FE14F0800F06BFB4FA84F46409022466
:1012440015F0800F02D044F0080402E00DB944F018
:10125400040405AA4FF400711E20FFF7E5FE05AA59
:101264004FF480711F20FFF7DFFE05AA012109203A
:10127400FFF7DAFE05AA08210A20FFF7D5FE059B31
:1012840013F0020F18BF44F0100413F0040F18BF3A
:1012940044F020042246FF213046FFF739F806B017
:1012A40070BD00BF846E0008046F0008F0B583B001
:1012B400214C224D224E234F32E02378CBB99DF8A6
:1012C4000730ED2B0AD0FF2B0DD100221E4B1A70D4
:1012D4001E4A1F49022002F0E1FD1AE0ED232370AB
:1012E40001232B7015E01B4A1949002002F0D6FD9A
:1012F4000FE0ED2B0AD19DF8073032789A4205D0E1
:1013040033703A461249002002F0C8FD00232370CE
:101314002B70FA210020FFF7A5F808B901232B70E0
:101324000020FFF783F828B90DF10701FFF7E2FA6F
:101334000028C2D103B0F0BDA81000207011002015
:10134400F5100020C86E0008E0100020A86E000808
:10135400B06E0008B86E00082DE9F04782B08146EF
:101364008A463E4B1B787BB9AA210020FFF77AF806
:1013740020B10122394B1A70002401E04FF4FA74B1
:10138400374801F061FD60E0364C374F374D264653
:10139400DFF8F080012B28D120E02378E02B03D163
:1013A400012388F8003019E0F02B02D101232B70BF
:1013B40014E098F800002A78002A009314BF2D2323
:1013C4002B232B492B4A002808BF0A462A49002010
:1013D40002F064FD0222214B1A700AE00122314618
:1013E400384602F0AFF90028D7D11C4B1B78022BEA
:1013F4002AD1224B1B78EBB998F8003023B1E021B5
:101404000020FFF72FF8A8B12B7823B1F02100209A
:10141400FFF728F870B121780020FFF723F848B1CE
:10142400FFF744FF002388F800302B7001230B4A98
:101434001370AFE7124A1049002002F02FFD08484C
:1014440001F002FD002400E00024224651464846F3
:1014540001F0FCFB02B0BDE8F08700BFE010002003
:1014640074110020F6100020AC100020F4100020AD
:10147400E06E0008D86E0008B06E000870110020FD
:10148400E86E0008E110002038B504460D46FFF769
:101494000DFF05222946204601F0D8FB38BD00BFC8
:1014A4002DE9F04182B00646174D0121284601F08E
:1014B400B7FCDFF870800121404601F0B1FC002444
:1014C40000942B4620221149114802F003F9114FD0
:1014D4002346114A4146384601F0A0FB22463946CC
:1014E400304601F0B3FB0D4F23460D4A29463846DA
:1014F40001F094FB4FF4FA723946304601F0A6FB32
:1015040002B0BDE8F08100BFE4100020C01000204C
:10151400AC100020F81000208D1400088411002065
:101524005D1300087411002000B583B010F0800F23
:101534001DBFE0238DF804300122002229B902AB3B
:101544001344F02103F8041C013202AB134400F0ED
:101554007F0003F8040C013201A9064802F0CAF81E
:1015640020B9054A0549022002F098FC03B05DF851
:1015740004FB00BFAC100020F46E0008B06E00083D
:1015840070B582B004461546467E0022ADF80620AA
:10159400ADF8042002AB43F8082D817F2A462029A8
:1015A40028BF2021C07F04F07FFE002849D0A17EFF
:1015B4000DF106032A46202928BF2021E07E04F0ED
:1015C40073FE00283DD0217F01AB2A46202928BF85
:1015D4002021607F04F068FE002832D0BDF8062088
:1015E400194B1B8893420AD1BDF80410174B1B8872
:1015F400994204D1164B1B680099994221D0124B91
:101604001A80BDF80410114B1980009B1048036028
:10161400A07E0F2804D8C0F110008240ADF8062047
:10162400227F0F2A04D8C2F110029140ADF80410B1
:10163400BDF80420BDF80610120A090A3046FFF767
:10164400E9FD02B070BD00BF40120020FC11002073
:101654006412002008B500230376034A03490120DD
:1016640002F01CFC08BD00BF306D0008006F0008CC
:1016740010B50446094A0A49012002F00FFC002271
:101684001146206904F0D0FD20B9064A044902201D
:1016940002F004FC0223237610BD00BFAC6D0008E9
:1016A400006F0008B46D0008D1799279002A40F0E7
:1016B400C680002940F0C5802DE9F04F87B01C4654
:1016C400654804F063FA0646002800F0B180A56876
:1016D40085E02B79012B40F08280BDF81030022B7D
:1016E4007DD1059B042B7AD16B795C4A5C4900203F
:1016F40002F0D4FB0121204604F062FD002877D0DB
:101704000221204604F05CFD00284ED170E0012B3C
:1017140002D0022B0ED050E09DF81130002B4CD19A
:10172400059B302B03D0312B08BFB84600E0B946E7
:10173400013742E02B79012B23D1B9F1000F0DDBE6
:10174400AA792B7809FB0233DBB2B276F376454AE9
:101754005146002002F0A2FB4FF0FF39B8F1000F10
:101764001FDBAA792B7808FB0233DBB2327773775D
:101774003D4A5146002002F091FB00274FF0FF380C
:101784001BE0092B0FD12B78EA79A97902FB01F22E
:10179400B277F3775A465146002002F07FFB0027C8
:1017A4000BE0002709E0002707E000274FF0FF388F
:1017B400C146DFF8CCB0DFF8A8A00DF10F0204A9F0
:1017C400204604F081FC18B19DF80F30002B9ED107
:1017D4006B79264A2249002002F060FB08E00DF1F3
:1017E4000F0204A9204604F06FFC00287FF471AFB7
:1017F400B27E42B3337F33B3F37E194C00921C4A5A
:101804002146002002F04AFB737F327F0092194A7E
:101814002146002002F042FBF37FB27F0092164A79
:101824002146002002F03AFB0123337630460FE0D4
:10183400124A0B49022002F031FB002008E000208C
:101844007047002070473146034804F0B3F9002084
:1018540007B0BDE8F08F00BF44120020086F0008F5
:10186400006F0008306F0008446F00086C6F0008B8
:101874007C6F0008A46F0008CC6F0008FC6F0008A0
:10188400586F000810B5084C02232022214607484F
:1018940004F062F900236376012384F839300448A4
:1018A40004F000FC10BD00BF001200204412002010
:1018B400B40F002008B500230376034A034901202E
:1018C40002F0ECFA08BD00BF306D00083470000867
:1018D40010B50446094A0A49012002F0DFFA002241
:1018E4001146206904F0A0FC20B9064A04490220EC
:1018F40002F0D4FA0223237610BD00BFAC6D0008B9
:1019040034700008B46D000879490969002940F071
:10191400E4809179012940F0E280D279022A40F0F2
:10192400E0802DE9F04F87B01C469D68AAE02A7933
:10193400012A40F0A780BDF81030022B40F0A280AD
:10194400059B022B40F09E806B796A4A6A4900200D
:1019540002F0A4FA0121204604F032FC002840F0F1
:10196400838098E06B79327D9A4238BF33752B7946
:10197400012B7AD1BDF81030022B76D1059B012BB7
:1019840073D10021204604F01BFC002851D182E0D1
:10199400012B02D0022B11D054E09DF81130002B02
:1019A40050D12B79012B07D1059B302B03D0312B40
:1019B40008BFB04600E0B146013643E02B79012B65
:1019C40023D1B9F1000F0DDBAA792B7809FB02337F
:1019D400DBB27A76BB76494A5146002002F05EFAC1
:1019E4004FF0FF39B8F1000F1FDBAA792B7808FB01
:1019F4000233DBB2FA763B77414A5146002002F0CB
:101A04004DFA00264FF0FF381CE0092B0FD12B783C
:101A1400EA79A97902FB01F27A77BB775A465146F3
:101A2400002002F03BFA00260CE000260AE0002623
:101A340008E000264FF0FF38C1462D4FDFF8D4B040
:101A4400DFF8B4A00DF10F0204A9204604F03CFB1A
:101A540018B19DF80F30002B9AD16B79294A264989
:101A6400002002F01BFA16E0214E0DF10F0204A92A
:101A7400204604F029FB70B19DF80F30002B7FF451
:101A840071AF08E00DF10F0204A9204604F01CFB1D
:101A940000287FF44CAF164B5A7E22B3DB7E13B37F
:101AA400134CA37E144D0092174A2946002002F0DD
:101AB400F5F9237FE27E0092144A2946002002F0C1
:101AC400EDF9A37F627F0092114A2946002002F0BB
:101AD400E5F901232376204606E000207047002024
:101AE400704700207047002007B0BDE8F08F00BFAA
:101AF400681200204070000834700008306F00083D
:101B0400446F00086C6F00087C6F0008A46F000825
:101B1400CC6F0008586F000830B585B004461546F0
:101B2400002303930293019303AB417E807E04F070
:101B3400BBFB637EC3F12002039B934013410393D9
:101B440002AB2A46E17E207F04F0AEFBE37EC3F1C4
:101B54002002029B93401341029301AB2A46617F0A
:101B6400A07F04F0A1FB9DF80420BDF80810BDF986
:101B74000C00FFF73DFB05B030BD00BF08B50248BF
:101B840004F090FA08BD00BFC40F002038B5054624
:101B94000C460B7B042B02D0052B03D016E04FF42C
:101BA4007A721CE0104B1B7893B9AA210120FEF72E
:101BB40059FC78B100210120FEF754FC68B10B4AAE
:101BC4000B49002002F06AF9002208E0002206E036
:101BD400002204E04FF47A7201E04FF47A72214655
:101BE400284601F033F838BD9C12002074700008B8
:101BF400807000082DE9F04182B080460F46354CD4
:101C0400354D4DE02378002B3ED19DF80730A3F1EC
:101C1400F2020D2A32D8DFE802F0131D20283131F8
:101C2400313131313131310700222C4B1A702C48BB
:101C340001F00AF92B4A2C49022002F02FF941E065
:101C44002A463146022002F029F900210120FEF73C
:101C540009FC26E0F323237034E002201F4B1870A4
:101C6400224A214902F01AF92CE001221B4B1A7076
:101C74001F4A1D49022002F011F923E01D4A1A49A6
:101C8400002002F00BF91DE0F32B06D19DF807307C
:101C9400194A1549022002F001F90023237011E0CA
:101CA400114E0120FEF7C2FB30B90DF107010120EE
:101CB400FEF720FE0028A5D10A223946404600F04E
:101CC400C5FF04E0FA210120FEF7CCFBE8E702B0EF
:101CD400BDE8F081881200208C7000089C1200205E
:101CE4008C120020A86E0008807000089470000810
:101CF4009C700008B86E0008A4700008F8B504468B
:101D0400114F0121384601F08BF8104E0121304665
:101D140001F086F80E4D00230E4A3946284600F09D
:101D24007DFF0A222946204600F090FF0A4D002339
:101D34000A4A3146284600F071FF4FF47A72294668
:101D4400204600F083FFF8BDA01200208C12002072
:101D5400B0120020F91B000828130020911B000872
:101D6400164B1B78022B28D170B582B00029B4BF62
:101D7400202300230028B4BF1024002402F007020B
:101D840042F008021A4344EA02038DF804308DF845
:101D940005008DF8061001AC0DF10706012514F8B5
:101DA400011B2846FEF75EFB18B9054801F04CF804
:101DB40001E0B442F3D102B070BD70479C12002020
:101DC400A012002030B585B00C4C0025204600F848
:101DD400045B3422294603F0A3FE4FF41653E36058
:101DE4002A460749684603F08DFE6B46224605499C
:101DF400054802F00BF805B030BD00BFA013002069
:101E0400BC700008AC700008D813002008B5036942
:101E1400187802F075FB08BD08B50369187802F05C
:101E24005BFB08BD38B505460469206901F0EEFA8C
:101E340000232B61207802F021FB38BD30B583B03C
:101E44000546046801A9204600F01CFD20442860D2
:101E5400019803B030BD00BF2DE9F04784B0039270
:101E64000369002B41D10D46044603A8FFF7E6FFA2
:101E740000B1E86003A8FFF7E1FF061E08BF802653
:101E840003A8FFF7DBFF071E002808BF3746012120
:101E9400F01901F015FA804648B304F1140A05F16B
:101EA4000409CDF800A00023BAB2014605F11000E0
:101EB40001F010FC0023009304F12403B2B208EBF8
:101EC400070105F1240001F005FC4946287802F0D9
:101ED40025FA28B1504600F0B7FF2561002007E03D
:101EE400404601F093FA012002E00F2000E00320B5
:101EF40004B0BDE8F08700BF00230361704700BF52
:101F040038B503693BB90D460446143000F09CFF14
:101F14002561002038BD0F2038BD00BF4FF0FF30D1
:101F2400704700BF10B40024C460046144610160C0
:101F34004260836010BC704710B50F4C0F492046B7
:101F440003F002FE0123636123614FF480630C4AB2
:101F54000C4904F13000FFF7E5FF18344FF48063B7
:101F6400094A0A492046FFF7DDFF094B2246094981
:101F7400094801F04BFF10BD241C0020D870000854
:101F840000140020E470000800180020F07000081D
:101F9400F8700008C8700008001C0020F8B5054659
:101FA4000369C068013B1B1A1846002BBCBFA86814
:101FB400C018904228BF10460646EC6868B10B462C
:101FC4000144601C13F8017B6A681755AC68A04291
:101FD40014BF044600248B42F3D102F0DFF8EC6016
:101FE40002F0DCF83046F8BDF8B50F461546066930
:101FF40000242A1B39193046FFF7D0FF10B10444DE
:10200400A542F6D12046F8BD10B5037913F0800F30
:1020140004D083681B689847012010BD13F0100F8B
:1020240002D04479A14201D3002948D1042B05D11F
:10203400836853F821301360012010BD13F0080F9A
:102044001ED003F00703032B3BD8DFE803F002079D
:102054000D1383685B561360012010BD836833F948
:1020640011301360012010BD836853F821301360D0
:10207400012010BD836853F821301360012010BD86
:1020840003F00703032B1ED8DFE803F002070D1348
:1020940083685B5C1360012010BD836833F81130E2
:1020A4001360012010BD836853F8213013600120B0
:1020B40010BD836853F821301360012010BD002047
:1020C40010BD012010BD012010BD00BF2DE9F0415D
:1020D400144B1C68144B1D6804EB0515134B1B684B
:1020E4009D4218D3BDE8F0812168286800F004FD02
:1020F40010B90F4801F0EAFA1034AC42F4D3356851
:1021040001353560D8F8004004EB05153B689D4265
:1021140005D3BDE8F081044EDFF80880034FAC42DC
:10212400E2D3ECE7D40F00206C1C0020D80F002071
:102134000471000870B582B00546144601AAFFF781
:1021440063FF38B3EE682EB92B7903F00702032A34
:1021540022D10EE02B7903F00702042A06D14FF0B6
:10216400FF320199204600F0AFFC19E0032A0BD19D
:1021740000E00D4E019804F079FC02460B4631460E
:10218400204603F0BFFC0BE0019A3146204603F0E1
:10219400B9FC05E0002003E0042AE0D0034EF3E795
:1021A4000023235402B070BD147100089475000814
:1021B4002DE9F04383B00F4630B94FF0FF32264982
:1021C400384600F081FC44E00546037913F0100F13
:1021D40004D10A460021FFF7ADFF3AE00023019342
:1021E400437993B300242646DFF870804FF0020948
:1021F40001AA21462846FFF707FF38B32A7902F0DF
:102204000703042B07D14FF0FF320199B81900F0EE
:102214005BFC304411E0032B06D14A460199B819FE
:1022240000F0C2FB304408E0B819E968002908BF8F
:102234004146019A03F066FC3044461C20233B547B
:1022440001346B79A342D3D800E000260023BB55A8
:10225400304603B0BDE8F083187100089475000897
:1022640010B50C4603688A6849682068984710B11D
:10227400E060012010BD002010BD00BF30B40C7818
:102284002144C578847844EA0524044481421DD954
:10229400A1421DD24878042803D11BE048780428C1
:1022A4001AD005280CD18D78C87800F0030090422C
:1022B40006D1B3EBD51F03D1029878B1013802904F
:1022C400087801448C42E9D8002008E0002006E0A8
:1022D400002004E0002002E0002000E0084630BCBA
:1022E400704700BF30B40C782144C578847844EA40
:1022F40005240444814213D9A14213D24878042806
:1023040003D111E04878042810D0824202D17BB175
:10231400013BDBB2087801448C42F3D8002008E08A
:10232400002006E0002004E0002002E0002000E09D
:10233400084630BC704700BF2DE9F04F89B04A7A97
:102344000B7A43EA0223A0F84C30CA7A8B7A43EA28
:102354000223A0F84E3091F811B0BBF1000F00F049
:10236400A68007464FF0000A544C5FFA8AF5092309
:10237400009323462A460221384600F02DFA00280D
:1023840000F08680E278A37843EA0223B3F5006F75
:1023940075D8009323462A460221384600F01CFAD9
:1023A400002865D02678E278A37843EA02239E4287
:1023B40074D24FF00009A5190023079304970594DC
:1023C40006956B78042B0CD1A379AA7800923C4A29
:1023D4003C49002001F062FD04A93B4800F0C0F82C
:1023E4000FE00B2B38D1A379EA780192AA780092F6
:1023F400364A3449002001F051FD04A9324800F066
:10240400AFF848B3B9F1000F18D100228DF80820B5
:1024140009238DF809306379ADF80A30ADF80C2042
:10242400ADF80E20134602A9384600F099F928B9F0
:10243400A379274A234901F031FD2FE0DDF81C8000
:10244400D8F810305B6840469847414607F11000C1
:1024540000F0BCFD09F101092B781E44E278A37851
:1024640043EA02239E42A6D3B9F1000F16D020E01E
:102474005346184A1349002001F010FD0EE05FFA9C
:102484008AF3154A0F49002001F008FD012011E0EC
:102494005346124A0B49002001F000FD0AF1010ADB
:1024A4005FFA8AF39B453FF660AF002002E000200C
:1024B40000E0012009B0BDE8F08F00BF000000205B
:1024C400207100084471000865220008507100085A
:1024D4007871000898710008C0710008E071000864
:1024E40008B5034800F060FD024801F0BDF808BDDE
:1024F400701C00207C1C0020F8B504460F461546CD
:102504001E463C22002103F00BFBE76084F8346094
:10251400A563012104F1140000F082FC012104F1FF
:10252400240000F07DFCF8BD10B50446094801F014
:10253400A3F82146084800F071FD10B1074801F0E6
:10254400C5F82146044800F041FD024801F0B2F804
:1025540010BD00BF7C1C0020701C00200872000805
:102564002DE9F04106460F460C4801F085F80C4B66
:1025740053F8044B9C420AD0DFF828803946E068BF
:10258400B047054620B924684445F7D100E000254A
:10259400024801F08FF82846BDE8F0817C1C002039
:1025A400701C0020741C00202DE9F04105460E46E5
:1025B4001746836B542404FB0134E06004F11000DB
:1025C40000F0F2FC04F12C0001F04EF884F84860AD
:1025D40084F84970002384F84A30A4F84E30A4F8F3
:1025E4004C3084F8503023626362A362E4610823B0
:1025F40084F82630EB68D3F818803B4632462146EF
:102604002846C047002814BF20460020BDE8F081BA
:102614002DE9F0410C4616461F46C568CD6001F110
:10262400100000F0C1FC04F12C0001F01DF884F846
:10263400486084F84970002384F84A30A4F84E3086
:10264400A4F84C3084F8503023626362A362E461DE
:10265400082384F82630EB68D3F818803B463246CA
:1026640021462846C047BDE8F08100BF002303602F
:1026740043608360C1600261704700BF08B50369AD
:102684009B68984708BD00BF38B590F850307BB1BF
:102694000546C068C368DB69294698472C69143528
:1026A400AC4205D02046FFF7E9FF2468AC42F9D1DB
:1026B40038BD00BFF0B4D478C4F301049378DF09C3
:1026C4001679C3F30303957900224A60CA6008604F
:1026D4000C724F728E72CB720D73F0BC704700BFD8
:1026E40070B50546066806F12C04204600F0C4FFC8
:1026F400F068C3689B68294698470546204600F061
:10270400D9FF284670BD00BF70B50546066806F1BE
:102714002C04204600F0B0FFF068C368DB6829464B
:1027240098470546204600F0C5FF284670BD00BF07
:1027340038B50446C3681B68D868C3681D69134666
:102744000A462146A84738BD10B5C3681B68DB6834
:10275400DA6854690A4601461846A04710BD00BF0E
:1027640098B32DE9F04182B0044690F85000012856
:102774002DD11F4616460D4604F12C08404600F0A4
:102784007BFFE368DA6804F140032868696803C3DF
:102794006FB195F90030002B09DA009715683346BC
:1027A400082204F140012046A847044608E00097A7
:1027B40055683346082204F140012046A8470446E0
:1027C400404600F077FF204602E0002070470020DA
:1027D40002B0BDE8F08100BF30B583B01C46BDF83F
:1027E400183080258DF8005006258DF8015042EAF6
:1027F4000122ADF802200022ADF80420ADF8063025
:1028040022466946FFF7ACFF03B030BD30B583B054
:10281400BDF81C4081258DF8005006258DF8015027
:1028240043EA0223ADF80230ADF80410ADF80640D7
:102834002346069A6946FFF793FF03B030BD00BFF5
:1028440000B583B000228DF8002005238DF80130F7
:10285400ADF80210ADF80420ADF806201346694621
:10286400FFF77EFF03B05DF804FB00BF10B504461C
:10287400C1600121103000F0D3FA002384F82C3019
:1028840010BD00BF0278A2F13003DBB2092B11D8CE
:1028940030B405460020034603EB830302EB4303F5
:1028A400303B013015F8012FA2F13004E4B2092CB9
:1028B400F2D902E00020086070470B6030BC70471A
:1028C400F0B585B0102A28BF10220DF1FF3600257F
:1028D400DFF854E00135AEFB0174E40804EB84072F
:1028E400A1EB4701303106F8011F2146002CF1D13C
:1028F400954208D20DEB05010DEB020401F8013BF2
:10290400A142FBD100E02A4642B16D46AB18411EFC
:1029140013F8014D01F8014FAB42F9D10023835460
:10292400104605B0F0BD00BFCDCCCCCC10B500290D
:1029340007DA2D2400F8014B4942FFF7C1FF0130AB
:1029440010BDFFF7BDFF10BD70B485B0102A28BFBD
:1029540010220DF1FF36002401F00F050134092D7A
:1029640094BF3035373506F8015F0909F4D1944234
:1029740008D20DEB04010DEB020401F8013BA14266
:10298400FBD100E0224642B16D46AB18411E13F85C
:10299400014D01F8014FAB42F9D100238354104695
:1029A40005B070BC704700BF2DE9F04F83B081467D
:1029B4009046C1F3C752FF2A18D10B46C1F3160241
:1029C400FF2A0CD10029B4BF2D232B2303706923C4
:1029D40043706E2383706623C37004206FE04E231C
:1029E4000370612242708370032068E00D46002169
:1029F400284604F06BF920B12D2389F8003005F145
:102A04000045284604F012F8064630230022014609
:102A14004846FFF78BFF0446B8F1000F4BD0304611
:102A240003F0ECFF0146284604F040F80646002176
:102A340004F03EF900283ED1651C09EB04072E235F
:102A440009F804300021304604F058F990B308F135
:102A54000108A04404F1270B0234002301939A4691
:102A640000E01C461749304604F0B8F8064603F067
:102A7400DDFF054603F0C2FF0146304604F016F8B8
:102A84000646002D01DC019B1BB10AF1010A01235A
:102A94000193303507F8015F0021304604F02EF928
:102AA40048B15C4507D0444505D0631CBAF1050F15
:102AB400D7DD00E02C46002309F80430204603B09B
:102AC400BDE8F08F0000204110B404460B78104696
:102AD4007AB1237053B1002302E004F8012F3AB114
:102AE400013311F8012F9842F7D102E0002000E0F1
:102AF400184610BC704700BF10F8013B11F8012BB9
:102B0400934202D1002BF7D105E0934234BF4FF03A
:102B1400FF30012070470020704700BFF8B50C4B10
:102B24000C4A9A4212D2074602F10804DE1D361BF3
:102B3400F6080136002554F8083CBB4202D154F88B
:102B4400043C984701350834B542F4D1F8BD00BFC0
:102B5400F4010008C401000808B50020FFF7DEFFF7
:102B64000120FFF7DBFF0220FFF7D8FF0320FFF768
:102B7400D5FF0420FFF7D2FF08BD00BF08B500F061
:102B840085FB01F067FA00F003FF01F02FF8FFF76F
:102B9400E3FFFEF765FA08BD90420AD0884208D0E8
:102BA400013A0138013912F8013F00F8013F884227
:102BB400F9D17047884203D000F8012B8142FBD140
:102BC400704700BF0B69CBB110B50C464B7B13F0BB
:102BD400010F07D001F1580000F034FF04F1300078
:102BE40001F024F863691BB104F1180000F02AFF16
:102BF400204600F00BFA0023236110BD704700BF8C
:102C040010B5044600F030FD002104F1200000F06E
:102C140007F904F1140000F0C7F910BDF8B5044633
:102C24000F4616461D467822002102F079FF012343
:102C3400237367612667656704F1180000F0EAFEF4
:102C440004F1580000F0E6FEF8BD00BF70B505467B
:102C54000C46164600F010FD21462846FFF7B2FF49
:102C640016B90023637307E001236373002231461E
:102C740004F1300000F0C4FF0223237325612146D0
:102C840005F1140000F0A2F905F1200000F0EEF8BF
:102C9400284600F00FFD70BD2DE9F04397B0804643
:102CA400894600F0E9FCD8F8144008F11807BC4242
:102CB40000F0938000266069002800F0848004F10D
:102CC400180100F0B7F80546002840F0818004237D
:102CD400237314E0002504F1580104F1480000F0C6
:102CE400A9F810B90523237309E0054302D103238E
:102CF400237304E02E432468BC42DCD16EE0002C34
:102D040070D021464046FFF75DFF404600F0D2FCFC
:102D140053E0684600F07EFE694608F1200000F0AA
:102D240089F80643B9F1000F15D0002249460CA8D2
:102D340000F066FF06A800F06DFE06A912A800F0D8
:102D440079F8304300F098FE06A800F07BFE0CA84A
:102D540000F06CFF02E0304600F08EFE684600F0A2
:102D640071FE404600F088FCD8F81440BC421ED0E6
:102D7400636933B194F82430022B02D10423237302
:102D84000FE0637B13F0010F06D094F86430022B3C
:102D940002D10523237304E02468BC42E8D1002453
:102DA40006E02CB121464046FFF70CFF00E000246A
:102DB400404600F07FFC0020C4B1236F214640460A
:102DC4009847012012E0637B13F0010F82D18EE754
:102DD400637B13F0010F8DD07DE70026404600F0A1
:102DE40069FC96E7404600F065FC92E717B0BDE841
:102DF400F08300BF037B43B1437B13F0010F03D087
:102E040000230373184670470020704710B5046808
:102E1400204600F021FEB0FA80F04009207310BD76
:102E240038B504460D4600F0BFF8002323736573DC
:102E340038BD00BF08B50B4602460249184600F0EB
:102E4400F3FD08BDF92D000808B5437B13F0010F0D
:102E540004D00146044801F055F808BD012303736A
:102E640000F0FAFD08BD00BF112E000808B50022CD
:102E7400027300F0F1FD08BD30B597B004460D466D
:102E840010A800F0C7FD10A92046FFF7D3FF38B300
:102E94000446F5B1684600F0BDFD0022294606A8A7
:102EA40000F0AEFE69460CA8FFF7C4FF60B12043F2
:102EB40000F0E2FD9DF84C40022C14BF00240124D4
:102EC400684600F0BFFD00E0012406A800F0AEFE55
:102ED40002E000F0D1FD012410A800F0B3FD00E0F1
:102EE4000124204617B030BD38B5044600250560DE
:102EF40045608560082343720561C1600121243067
:102F0400FFF78EFF012104F11400FFF789FF6563C9
:102F140038BD00BFF0B583B00446174602AB43F892
:102F2400041D1946002000F041FF60B105464669C2
:102F340031462046FFF7D8FF36683B46019AA96917
:102F44002046B04700E0062003B0F0BD2DE9F84F5D
:102F540007468A461646D0F80C80D0F83490D8F844
:102F64000C309847041E1BDBB9F1000F18D025461E
:102F7400A64215D907F1140B49465846FFF77CFFC2
:102F840070B1D8F80C30721B0AEB0501384698472B
:102F9400002804DB04442546A642EDD800E004469C
:102FA4002046BDE8F88F00BF031D03600023436083
:102FB40080607047486003680B6059604B68196013
:102FC400704700BF08B5FFF7F5FF08BD08B5806876
:102FD400FFF7F0FF08BD00BF38B50446806854F819
:102FE400043BA3420FD091F9085093F90820AA4258
:102FF40006DA03E093F90820AA4201DA586802E0ED
:103004001B68A342F6D1FFF7D5FF38BD43680268B9
:103014001A60036842685A60704700BF50F8043B66
:10302400834209D08B4202D108E0994207D01B6841
:103034008342FAD1002302E0002300E00B46184645
:10304400704700BF10B401F4407103680C4A002BB0
:1030540008BF1346141D03E09A8931EA020206D020
:103064001B68A34205D0002BF6D1002203E0012205
:1030740001E000231A460360104610BC704700BFED
:10308400901C002030B4C3895A1E914211D1828B06
:103094005208013293420CDD013BC381C38BABB1B7
:1030A40000EB03100369103303614369103B436170
:1030B4000CE0458B4A1C1201841800238350636082
:1030C400A360E36000EB01135D83418330BC704770
:1030D40070B4048B0CB3A14207D102E08B4208D137
:1030E40000E000241480012018E000EB01131E69A5
:1030F40000E01C4600EB04152D69B54203D100EB3A
:1031040004139B8B05E0B54200EB04138CBF1B8BAF
:103114005B8B002BE2D1002000E0002070BC7047E4
:10312400F0B400EB0114A48B64B100EB01131E8B0B
:1031340000EB04152E835E8B6E8300259D835D83D7
:103144001D832DE000EB01131D8B9DB100EB0516D3
:10315400778B1F83718352B100EB0216368B8E423C
:1031640000EB02120CBF158355832A46ECE7058356
:103174002A46E9E75D8B9DB100EB0516378B5F832B
:10318400318352B100EB0216368B8E4200EB0212F1
:103194000CBF158355832A46D6E705832A46D3E711
:1031A4000AB9048315E0164600EB021500EB01137F
:1031B4002D691B699D4203D100EB0210848308E052
:1031C40000EB0212138B8B4200EB06100CBF04833E
:1031D4004483F0BC704700BF038B23B130B400EBD1
:1031E4000112156901E0018370471C4600EB0312CC
:1031F4001269954208D200EB03131B8B002BF4D108
:1032040000EB0410018311E0954208D900EB03138D
:103214005B8B002BE9D100EB0410418306E000EB4B
:103224000314A38B00EB01108383A18330BC70478C
:1032340038B50446002020606060A0602372042337
:10324400637202F44072A2810223E381A061E0610F
:103254002161646101232383E383A062E062303946
:10326400216204F130036362064D284600F004FA3B
:1032740021460548FFF7B0FE284600F01BFA204619
:1032840038BD00BF9C1C0020901C002008B50848D5
:10329400FFF78AFE074800F0E7F9074B0749591A78
:1032A40004D000231A460548FFF7C2FF08BD00BF3B
:1032B400901C00209C1C0020DC290020DC23002022
:1032C4002DE9F04F85B0044601908A464E4800F03F
:1032D400D3F90DF11009002349F8043D04F1130555
:1032E40025F00F057FE0AB46039CB4F818E0BEF16F
:1032F400000F2DD177E0134604EB021109698D42CA
:1033040006D9964604EB03135A8B002AF3D16AE0DC
:10331400511C04EB011104EB03131E8B36B330462E
:10332400731C1B01E718E3589D420BD922E00846A1
:103334004B1C1B0104EB030EE3589D421DD832467F
:1033440077460E4604EB0010018B0029EFD114E000
:10335400734604EB0E1212699542D3D80EF10101A3
:1033640004EB011172464FF0000ED4E71646724684
:103374000F4602E0164672460F46A7B33B685B1B36
:10338400796801EB030831462046FFF7C9FE3B6824
:103394009D420FD100231A4604EB0313DB8BB34287
:1033A400F9D1FB8904EB0212D38331462046FFF79F
:1033B40069FE05E05B1B3B6031462046FFF70CFFCE
:1033C400A38B0133A383B8F1000F0CD048F804BBDE
:1033D4001AF0010F10D00022019B434419464046C5
:1033E400FFF7E8FB08E051464846FFF72BFE0028AC
:1033F4007FF479AF4FF00008034800F05BF94046D2
:1034040005B0BDE8F08F00BF9C1C00202DE9F043FF
:1034140083B005467F4800F02FF97F4B53F8044BE7
:103424009C4200F0EB807D496369AB4200F2E2808C
:10343400226913449D4280F0DD802E1F55F8048CD0
:10344400E58B2846002D00F0DD809DE0174604EB57
:10345400021359691B690B449E4208D9104600E0C7
:10346400284604EB0717FA8B002AEFD1CAE0154669
:103474009E4241D10DF1060229462046FFF728FE5F
:1034840010B9674800F022F9BDF806202946204605
:10349400FFF746FE04EB0712136943441361B2F8C5
:1034A4001E90B9F1000F22D004EB0911464448697B
:1034B400B0421CD109690B4413610DF1060249465F
:1034C4002046FFF705FE10B9554800F0FFF8BDF897
:1034D400062049462046FFF723FE04EB0913DB8B45
:1034E40004EB0717FB8349462046FFF7CBFD29462B
:1034F4002046FFF771FE79E006EB08038B421AD1F0
:103504000DF1060229462046FFF7E2FD10B94448B2
:1035140000F0DCF8BDF8062029462046FFF700FE3F
:1035240004EB07177E613B6943443B61294620460F
:10353400FFF752FE5AE08B4258D2618B21B104EB63
:1035440001135B8B63830FE0E18904EB01132033E8
:10355400634507D9CCEB0302C2EB0902CEF8102075
:10356400CEF814304B1CE38104EB011300279F6158
:10357400DF61C3F810805E6104EB0010C183DD835A
:103584002046FFF729FE31E02F4604EB051EDEF846
:1035940014C0DEF810900CEB09039E423FF660AFB6
:1035A4006146002064E704EB01135B8B63830FE047
:1035B400E18904EB0113203304EB05156A69934296
:1035C40004D99A1A2F69BA1A2A616B614B1CE381D8
:1035D40004EB011300259D61DD61C3F810805E6179
:1035E40004EB0010C1832046FFF7F6FDA38B013BDB
:1035F400A38303E024688C427FF416AF054800F0EF
:1036040059F803E0618B0029D2D0CCE703B0BDE8C0
:10361400F08300BF9C1C0020901C0020941C002000
:1036240024720008036833B901234360074B1B6805
:10363400036000207047054A1268934204D143682E
:10364400013343600020704708307047EC1D0020B0
:1036540008B500684368013B43601BB940F8083B68
:1036640000F0FAF908BD00BF08B500230360436009
:103674000830FFF799FC08BD70B586B0044668466B
:1036840000F0C8F9094E0A4D22463146684600F05A
:10369400CBF920B100F0F0F9684600F0D3F92268C4
:1036A4002B689A42F0D106B070BD00BF29360008DD
:1036B400EC1D002008B50146014800F023FC08BDBC
:1036C4005536000808B500F063FD00BF08B500F0EA
:1036D4005FFD00BF38B5049D002484600160013A99
:1036E4008280C36005610481C48015B12846FFF758
:1036F400ABFB38BDF8B5C488164602B3A4B2013991
:103704000025AE4600E014468388A3428CBF621CA9
:10371400724603899BB29A4209D0013511F8017FA0
:1037240003681F5593B2C380AE42ECD101E02DB1C2
:103734002E46C06818B1FFF787FB00E02E463046DE
:10374400F8BD00BFF8B5144652B303899BB21F46B7
:10375400C28892B2934220D0013900252E4606E059
:1037640003899BB21F46C28892B293420ED00135A0
:103774000268D25C01F8012F8288BA42C6BF0133C5
:103784009BB233460381AC42EAD101E03DB12C4601
:10379400006928B1FFF758FB02E0002400E02C4642
:1037A4002046F8BD10B5046821460448FFF714FC10
:1037B4000123237300F0E4FC10BD00BFF01D0020C2
:1037C40008B5034B1968034800F09CFBFFF77AFF28
:1037D400EC1D00204938000838B504460569037B10
:1037E4001BB1FFF713FC00232373214605F11C00D2
:1037F400FFF7F2FB022323732B7B022B0ED1EA6A21
:1038040063691A420AD02846FFF700FC2946044897
:10381400FFF7E2FB01232B7300F0B2FC38BD00BFBD
:10382400F01D0020F8B50568476800242E1D02E04D
:10383400FFF7D2FF01342868B04201D00028F7D145
:103844003C60F8BD70B505682846FFF7DFFB002330
:103854002B7305F12006EC69B4420FD023699D4215
:1038640009D002E023699D4205D02046FFF7B4FF4A
:10387400002CF0D102E02468B442F3D100F080FCC3
:1038840070BD00BF38B5104B1D680468EB6905F1C5
:1038940020018B420BD05A69144203D006E05A69C6
:1038A400144203D11B688B42F9D100E05BB928466E
:1038B400FFF7ACFB29460548FFF78EFB02232B7369
:1038C400EC6200F05DFC38BDEC1D0020B01C002053
:1038D40038B50468436880689847B0B105460B4B17
:1038E4001868816ACA4301231A420AD019438162C3
:1038F400636101232373206121462846FFF766FB99
:1039040038BD5B00F0D1FFF7DDFE38BDEC1D0020B3
:1039140010B50468237B23B12046FFF777FB00230F
:10392400237323691BB1996A62694A409A6200232E
:103934002361636110BD00BFF8B504460F46164607
:10394400D518CC2229463046FFF734F900222260EC
:103954006260A2602772012363722273A66125F05C
:1039640007052561E262A26204F11C00FFF71CFB5B
:10397400054B069A0799204600F0D2FA21460348DF
:1039840000F0C0FAF8BD00BFC5370008A937000829
:1039940030B583B01548FFF707FB1548FFF704FB64
:1039A400144C002525606560A560012363722573AE
:1039B400114B1B68A3612561104B1B68636104F103
:1039C4001C00FFF7F1FA0E4B1C6021460D4800F075
:1039D40099FA01950C4B00934FF480730B4A6FF0E6
:1039E4007F010B48FFF7A8FF03B030BDF01D002096
:1039F400B01C0020FC1D0020E00F0020DC0F002084
:103A0400EC1D0020A93700089D410008EC1C002093
:103A1400BC1C00200023036043608360C360036117
:103A2400436103234372704710B50446007B28B9F1
:103A340013460A462146024800F064FA606910BD44
:103A4400D538000808B5037B1BB10146014800F0D6
:103A540059FA08BD1539000800B583B002AA00233D
:103A640042F8043D0146034800F04CFA019803B0C3
:103A74005DF804FB2938000808B50146014800F048
:103A840041FA08BD89380008C8B110B590B00446A1
:103A94006846FFF7BFFF0022214606A800F0B0F8F1
:103AA40069460CA8FFF7C6F920B1FFF7E5FF6846A1
:103AB400FFF7C8FF06A800F0B9F810B010BD7047B2
:103AC40008B5044B53F8040B984201D1FFF7FAFDF3
:103AD40008BD00BFF01D002070B50F4B53F8042B38
:103AE4009A420DD0456953699D4209D30B4E03E0B8
:103AF4005C69AC4203D81A461368B342F8D12AB9B8
:103B040001460548FFF75EFA012070BD01461046E4
:103B1400FFF750FA002070BD2C1E0020301E00203C
:103B2400F8B505461B4B53F8044B9C421DD00227A5
:103B3400194E6369AB4213D82046FFF767FA23692D
:103B440043B1636104F11800FFF790F92046FFF7D1
:103B5400C3FF07E0277304F11800FFF775F901E0CC
:103B64005B1B63612468B442E3D10A4B53F8042B12
:103B74009A4202D01AB1516902E0002100E000210A
:103B8400064A284600F026FA054A13681D441560C3
:103B9400F8BD00BF2C1E0020301E0020253B00086D
:103BA400381E002038B5054600F00AFA0446286895
:103BB40001230373436923444361FFF78DFF10B16D
:103BC4002046FFF7ADFF38BD10B50468214606480E
:103BD400FFF724FA30B12046FFF718FA00F0F0F9A5
:103BE400FFF79EFF10BD00BF2C1E002008B5034840
:103BF400FFF7DAF9AFF3008008BD00BF2C1E0020E8
:103C040010B50446002303604360836002206072A1
:103C140061612261194604F11800FFF701F9214698
:103C2400014800F06FF910BDA93B000808B5037BFB
:103C3400012B03D10146024800F064F908BD00BF1E
:103C4400CD3B000810B50446002303604360836045
:103C5400C3600523437201611430FFF705FD04F1CD
:103C64002800FFF7A1F910BDF8B507460D46044634
:103C7400637A052B17D104F114063046FFF7FCFCD8
:103C8400A36A04F12C0293420AD09D4205D101E0BB
:103C94009D4202D10D48FFF719FD1B689342F7D1ED
:103CA4003046FFF707FDE468002CE1D107F1140466
:103CB4002046FFF7E1FC294607F12800FFF786F9C3
:103CC400EF602046FFF7F6FCF8BD00BF387200082D
:103CD40038B50C4C00212046FFF7B4FF0A4D0B49C0
:103CE4002846FFF7AFFF29462046FFF7BDFF084DE2
:103CF40008492846FFF7A6FF29462046FFF7B4FFE8
:103D040038BD00BF3C1E0020701E00204872000811
:103D1400A41E00204C7200082DE9F84389460E6861
:103D240033782F2B02D101361F4F07E007461E4B75
:103D3400002808BF1F4601E026462F467B7A052B44
:103D44002BD107F114084046FFF796FCBD6A07F132
:103D54002C00854216D02A69344603E014F8011B6E
:103D6400994209D112F8013B002BF7D123785BB1BA
:103D74002F2B01D1013407E02D688542EBD1344665
:103D84003D4601E034463D464046FFF793FCBD42C4
:103D940004D0002DD0D12F4600E03446C9F80040AD
:103DA4003846BDE8F88300BF3C1E002008B5FFF785
:103DB400B3FF20B1427A062A18BF002008BD0020B4
:103DC40008BD00BF013800210FE001311F2B18D9B5
:103DD40023F02002413AD2B2192A06D9A3F13002C3
:103DE400D2B2092A01D95F2B0DD110F8013F002B63
:103DF400EBD121B10729CCBF00200120704700205E
:103E04007047002070470020704700BF2DE9F0473D
:103E140082B006468846174602A941F8043D0020B0
:103E2400FFF77AFFE8B10446437A052B1BD1DDF88E
:103E340004904846FFF7C6FF0546A8B106F11C0AE0
:103E4400082249465046FEF73FFE06237372C6F821
:103E540010A0C6F81480B76131462046FFF704FF6E
:103E640002E0002500E00025284602B0BDE8F08706
:103E740038B5084C2478844209D81D4614460648AF
:103E840001F022FE2946204601F00EFE38BD002036
:103E940038BD00BFD81E0020507200080CB400B515
:103EA40083B004AB53F8042B0193FFF7E1FF03B095
:103EB4005DF804EB02B0704710B5044C2368186138
:103EC400FFF7FEFD2060006910BD00BFEC1D00205F
:103ED40000B5EFF3098020E9F00FFFF7EDFFB0E83C
:103EE400F00F80F3098800BD1EF0040F0CBFEFF340
:103EF4000882EFF3098200B5116802F104008847D3
:103F040000BD00BF10B5EFF305840B2C01D000DF1A
:103F140010BD0EB404466846A0470EBC10BD00BFD9
:103F240030B4046924F007044FF0045544F8045CE9
:103F340044F8082C44F80C3C0C2344F8103C0323AC
:103F440044F8143C022344F8183C012344F81C3C74
:103F540044F8201C0B2344F8243C0A2344F8283C4E
:103F6400092344F82C3C082344F8303C072344F844
:103F7400343C062344F8383C052344F83C3C0423F1
:103F840044F8403D046130BC704700BF08B5084A9E
:103F9400136801331360074A12689B1A002B05DB70
:103FA400054B1868054B1B68101A984708BD00BFDD
:103FB400E41E0020DC1E0020E01E0020E81E00207D
:103FC400024B1868024B1B68C01A7047E41E00209D
:103FD400E01E0020104B1A60104A13681844106049
:103FE4000B4699B10E4A127852B90C490A600D4930
:103FF4000A6001200A4908700B498A6007220A6096
:10400400084A12681344094A136070470023064A99
:104014001360034A13707047E81E0020E01E00205E
:10402400D91E0020E41E002010E000E0DC1E002069
:10403400BFF34F8F0549CA6802F4E062044B13438F
:10404400CB60BFF34F8F00BFFDE700BF00ED00E082
:104054000400FA05F8B5F022424B83F8222000232D
:104064000126414815463F4F5A09DCB204F01F01AE
:1040740006FA01F1203240F8221013F0800F05D027
:1040840004F00F02043A3A44157602E0C21882F8AA
:1040940000530133442BE7D14FF48032334B1A6081
:1040A4001A46136813F4003FFBD0314A136843F0F7
:1040B40010031360136813F0200FFBD02C4A13680D
:1040C40023F0070343F002031360284B5A6842F4B9
:1040D40080325A605A6842F480125A601A6842F078
:1040E40080721A601A46136813F0007FFBD01F4ACF
:1040F400536823F47F4343F4800343F488435360B9
:10410400536823F0030343F002035360536803F03E
:104114000C03082BFAD102F00DFC164B1A68164B4F
:104124009A4202D01548FFF7D1FA104B9A6942F02F
:1041340001029A619A6942F03C029A614FF000725E
:10414400A3F588335A60F022064B83F82320A3F5A5
:104154004F634BF67F325A6000221A60FCF748F82E
:10416400F8BD00BF00ED00E000E100E000100240F7
:1041740000200240F40F0020006CDC0204710008EF
:104184004FF08052014B5A60704700BF00ED00E0D1
:1041940008B500BEFFF74CFFFEE700BFBFF34F8F2B
:1041A400704700BF30B40409264B53F8245001F083
:1041B4000303032B22D8DFE803F0040B14020022CC
:1041C4001CE001F01803002B14BF0822042215E0A0
:1041D4004BB2002BB4BF0323012301F004021A43A2
:1041E4000CE04BB2002BB4BF0322012201F0040403
:1041F400E4B2002C14BF0C2308231A43830003F0F9
:104204001C030F249C4002FA03F300F00F0007285C
:1042140005DC2A6822EA040423432B6004E06A686C
:1042240022EA040423436B6011F0180F08D011F044
:10423400080F4FF0010303FA00F014BF286168610E
:1042440030BC7047587200080209064B53F822200C
:1042540000F00F00012303FA00F009B11061704768
:1042640050617047587200080209074B53F8223016
:104274009A6800F00F00012303FA00F0104214BF03
:1042840018460020704700BF587200082DE9F0411D
:1042940082B0204B53F820501F4B53F8206006F196
:1042A4000C0801272EE014F0200F15D014F0080F8D
:1042B40003D0337843F0010333706B688DF8073013
:1042C4003A460DF1070106F12000FFF713FAC8B9C9
:1042D400337843F00103337014F0800F16D03A465C
:1042E4000DF107014046FFF72DFA40B9EB6823F0C2
:1042F4008003EB60337823F01003337006E09DF8FD
:1043040007306B602C6814F0A00FCCD102B0BDE86C
:10431400F08100BF6C720008EC1E0020022800F23D
:104324009380F8B50E4604464F4B53F8203013B132
:104334004E48FFF7CBF94C4B43F82410002900F00A
:1043440085808F684A4B53F8205001281AD010B149
:10435400022825D032E0474BDA6842F48042DA6022
:104364009A6942F480429A61DA6882F48042DA609F
:104374004FF40053EB6000232B61EB6843F0080318
:10438400EB6025E03B4B1A6942F400321A61DA69AA
:1043940042F40032DA611A6982F400321A6159E097
:1043A400344B1A6942F480221A61DA6942F4802299
:1043B400DA611A6982F480221A614BE04FF40053E7
:1043C400EB6000232B61EB6843F00803EB6098B9C2
:1043D40000F0E2F800EB5703B3FBF7F7AF60AB680C
:1043E400B0FBF3F0B060EB6843F00403EB60EB6800
:1043F40043F0A003EB6018E000F0B8F800EB5703BB
:10440400B3FBF7F7AF60AB68B0FBF3F0B060EB68F9
:1044140043F00403EB60EB6843F0A003EB60012C72
:1044240008D014B1022C0AD012E02022124B5A6098
:104434000120F8BD4022104B5A600120F8BD8022B3
:104444000D4B5A600120F8BD002070470020F8BDD4
:104454000120F8BD4FF40053EB6000232B61EB689F
:1044640043F00803EB60C7E7EC1E0020047100086A
:104474006C7200080010024000E100E001280DD039
:1044840010B1022814D0704720220E4BC3F88420A8
:1044940000230D4AD3600D4A136070474022094B34
:1044A400C3F8842000230A4AD360084A5360704743
:1044B4008022044BC3F884200023064AD360034AB5
:1044C4009360704700E100E000380140EC1E0020DA
:1044D4000044004000480040022808D808B5074BB3
:1044E40053F8200030B12030FFF72CF908BD4FF00D
:1044F400FF3070474FF0FF3008BD00BFEC1E0020B6
:10450400022817D838B50E4B53F820500D4B53F8EA
:10451400204094B104F10C00FFF7ECF8237813F079
:10452400100F0CD143F010032370EB6843F08003A9
:10453400EB6038BD4FF0FF3070474FF0FF3038BDAF
:104544006C720008EC1E002008B50020FFF79EFEE8
:1045540008BD00BF08B50120FFF798FE08BD00BFE5
:1045640008B50220FFF792FE08BD00BF084B58684B
:10457400000A10F0070F07D000F003000130054BCC
:104584001B6823FA00F07047024B1868704700BF9D
:1045940000100240F40F0020084B5868C00A10F0C5
:1045A400070F07D000F003000130054B1B6823FA06
:1045B40000F07047024B1868704700BF00100240BB
:1045C400F40F002010B5544B53F820305A6912F000
:1045D400010F0CD0514A02EB40104269147E818BCA
:1045E400B1FA81F2520942EA44021A6110BD12F092
:1045F400020F20D09A69494A02EB4012127F2AB175
:10460400464A02EB40125269116904E0434A02EB44
:10461400401252695169414A02EB40108161827F24
:10462400012A03D91A6842F480621A605A6842F473
:1046340080625A6010BD12F0800F45D0374901EBFB
:104644004011097F89B1354A02EB401291694C1C33
:10465400946109781961137F013BDBB21377002B56
:1046640059D153695B69936110BD2C4901EB401129
:10467400497F59B1294A02EB40108269511C81617A
:1046840012781A61437F013B437710BD234901EB44
:104694004011897F69B112F0040F05D05A691A6874
:1046A40042F480721A6010BD5A6822F480625A6023
:1046B40010BD1A6842F400721A60184B03EB4010E4
:1046C4004069FEF7C1FB10BD12F0400F23D0134A1E
:1046D40002EB4012927FF2B1104901EB40118A695A
:1046E400541C8C611C6914708A7F013AD2B28A7797
:1046F40012B1012A09D010BD084C04EB40146069C2
:10470400FEF7A2FB0023636110BD1A6822F4C062A5
:1047140042F400721A6010BD78720008F81E00207E
:1047240010B5194B53F820305A6912F4806F17D022
:104734005A6922F480625A611A6842F400721A605B
:10474400124B03EB40135B69EBB10122DA760F4C99
:1047540004EB40146069FEF777FB0023636110BD2E
:104764005A6922F486425A61084B03EB40135B6991
:104774004BB10222DA76054C04EB40146069FEF773
:1047840063FB0023636110BD78720008F81E0020EB
:1047940008B50020FFF716FF08BD00BF08B50020CC
:1047A400FFF7BEFF08BD00BF08B50120FFF70AFFF1
:1047B40008BD00BF08B50120FFF7B2FF08BD00BF68
:1047C40008B5064B5B69DB0704D5054B1B680BB1C9
:1047D40000209847014B01225A6108BD00040140A2
:1047E400381F002008B5064B5B699B0704D5054BB1
:1047F4005B680BB101209847014B02225A6108BD46
:1048040000040140381F002008B5064B5B695B07B4
:1048140004D5054B9B680BB102209847014B042239
:104824005A6108BD00040140381F002008B5064B3A
:104834005B691B0704D5054BDB680BB10320984764
:10484400014B08225A6108BD00040140381F0020B2
:1048540008B5064B5B69DB0604D5054B1B690BB138
:1048640004209847014B10225A6108BD00040140FE
:10487400381F0020F8B50B4E0B4F05242025736913
:104884002B424FEA450504D057F824300BB120469B
:10489400984701340A2CF2D1024B4FF478725A61D2
:1048A400F8BD00BF00040140381F0020F8B50B4ECE
:1048B4000B4F0A244FF4806573692B424FEA450578
:1048C40004D057F824300BB1204698470134102CFB
:1048D400F2D1024B4FF47C425A61F8BD000401400E
:1048E400381F00201B4A536943F4805353614FF02F
:1048F400A042D36843F04003D3601369002BFCDA71
:104904004FF0A042136943F001031361136913F0DC
:10491400010FFBD110B582B000230193019B0B2B37
:1049240005D8019B01330193019B0B2BF9D94FF05F
:10493400A0444FF48033A3631420FFF7A5F80223A7
:10494400A361A36843F00103A3600822024B9A60A9
:1049540002B010BD0010024000E100E008B54FF0C5
:10496400A0435B6913F0020F03D002224FF0A0436F
:104974005A6100F099FD08BD0B4B53F8202000EB61
:1049840040010A4B03EB81031169994202D10023D0
:10499400136104E0D1688B4204BF0023D36000227A
:1049A400014B43F8202070477C1F0020C01F0020CB
:1049B40070B400EB4002144B03EB82039D68F5B125
:1049C400AE8C0336B61034464FF0A043DB6AEB8C52
:1049D4002A6A1A444EB10D4B53F82000002352F8B2
:1049E400041B016001339C42F9D1E88C00EB86067C
:1049F400B6B2EE84A88C864203D2801B02E000206B
:104A040000E0002070BC7047C01F00204474000800
:104A1400430103F1A043D3F8002522F0804242F081
:104A24000042C3F8002500EB4002144B03EB820361
:104A3400DB780BBB10B50446104B13F82200FFF7CC
:104A4400B7FFC0B104EB44000C4C04EB8000837846
:104A5400032B10D8DFE803F0020902094FF0A0424B
:104A6400936943F02003936110BD4FF0A042936912
:104A740043F08063936110BD704700BFC01F0020E6
:104A84002DE9F843524C24683CB1514D012455F8AA
:104A9400046F002E40F0948000E00024D1F80480DC
:104AA40091F80B900F7ADFF834E104EB4406B6007A
:104AB4000EEB06054FF0000C4EF806C0C5F804C016
:104AC400C5F808C00EF8064085F80190AF70EA708A
:104AD400AB713F4B43F824800B6893F84A5093F82A
:104AE4004960897A5FFA84FE4FEA4E1303F1A043CA
:104AF4004FF0FF3CC3F808C5022F02D0032F0FD09C
:104B0400BFB940F29B4740F29B53012A0CBF1A469F
:104B14003A464FEA4E1303F1A043C3F80C250BE0C9
:104B24004FEA4E1303F1A04340F29972C3F80C25E7
:104B340002E02848FEF7CAFD274FBA69012303FAA9
:104B44000EFE4EEA0203BB61244A04EB44039B00BD
:104B5400D718D35CAD0505F0FE5597F80180FA78B7
:104B6400012A0CBF4FF400470027002E0CBF4FF45E
:104B74000036002604EB440C184A02EB8C0C9CF81B
:104B840002E04FEA8E4242EAC8222A433A433243C1
:104B94000A439CF80610002914BF4FF48011002129
:104BA4000A43BEF1030F0CBF4FF0005100210A432A
:104BB40008335B010849CA5004600120BDE8F8834A
:104BC4000134082C7FF463AF0020BDE8F88300BFF4
:104BD4007C1F00208072000800040050C01F0020C9
:104BE40038B50F4B53F82050C5B12B7DB3B100EB52
:104BF40040030C4A02EB83039B686BB1044683F8C1
:104C04002C1003F11000FEF71FF904EB4400054CCF
:104C140004EB80000023836000232B7538BD00BFA4
:104C24007C1F0020C01F002010B5164B1B6C13F016
:104C3400040F18D0430103F1A042D2F8004544F018
:104C44004044C2F8004502F580621346D2F80C21B4
:104C540042F00202C3F80C2191B10B4B53F82030FF
:104C6400002BFDD110BD0446430103F1A0430022F3
:104C7400C3F80C250221FFF7B3FF2046FFF77CFEA3
:104C840010BD00BF000400507C1F002070B50D460D
:104C9400244B1860FFF726FE4FF0A042D36843F080
:104CA4000053D360536913F0010FFBD03220FEF799
:104CB400EBFE00241C4B1C601C490B6823F004030E
:104CC4000B604FF0A04380225A6202F5C0029A6240
:104CD4006032C3F800219A6842F4C0729A609A69FB
:104CE40042F0407242F018029A610B6C43F4805314
:104CF4000B6401220E4B1A70062318220D490E482C
:104D040000F02AFF074B19680C4E23460C4A243145
:104D14003046FDF783FF224631462846FDF796FFCD
:104D240070BD00BF781F0020000E0050000400502A
:104D340028210020202000209C1F0020B0200020DB
:104D4400AD4D0008800140F020004FF0A0431861F1
:104D54001A46136913F0200FFBD182B0002301938C
:104D6400019B0B2B05D8019B01330193019B0B2B5A
:104D7400F9D902B0704700BF10224FF0A0431A6166
:104D84001A46136913F0100FFBD182B0002301936C
:104D9400019B0B2B05D8019B01330193019B0B2B2A
:104DA400F9D902B0704700BFF0B583B005460E468E
:104DB4005B4B1C6C5B4B1B78013B042B00F2A58006
:104DC400DFE803F0031726A3770014F0010F00F0C7
:104DD4009E80554A55490020FFF760F80222514B46
:104DE4001A7004F48E5444F482744D4B1C6464228F
:104DF40090E014F0010F00F08C800322494B1A70EC
:104E040004F4865444F00404454B1C64002281E0FD
:104E1400C4F3414714F0040F40D0012F02D0022FF5
:104E240007D00DE03E4B4BF680325A6001221A60E7
:104E340009E03B4B41F270725A6002221A6002E0B0
:104E44003B48FEF743FC1020FFF77CFFFFF794FF7D
:104E54000522344B1A70C820FEF716FE012F14BF2A
:104E6400002201220021334B1868FDF79DFB70B12D
:104E7400B0F84C3090F848100191B0F84E200092F0
:104E84002D4A2A490020FFF709F8002242E02B4A64
:104E940026490020FFF702F800223BE0284A29496E
:104EA4000220FEF7FBFF01221E4B1A704FF4FA7228
:104EB40030E014F0040F02D01D48FEF707FC1D4B30
:104EC4001B689C6BB4F84C30184F94F8482001923E
:104ED400B4F84E2000921C4A39460020FEF7DEFF4B
:104EE4002046FDF7D1FBB4F84C30B4F84E200092C4
:104EF400164A39460020FEF7D1FF0A20FEF7C4FD0A
:104F04000122084B1A70002204E0002202E0002271
:104F140000E0002231462846FDF798FE03B0F0BDBC
:104F2400000400502821002090720008A472000898
:104F340004710008781F0020B0720008D4720008C1
:104F4400E8720008007300080C730008347300084A
:104F540070B584B00446C37A6BB9544B1B6853B123
:104F64004360036893F84830514A52490020FEF7E1
:104F740095FF012697E0504800F008FE05460028FA
:104F840000F0868000230361C36003756060237AA8
:104F9400022B32D0032B33D0002B65D11A46214685
:104FA40003A8FFF76DFD002861D0002301222146EC
:104FB40002A8FFF765FD0646D8B1236893F8483088
:104FC4000193029B0093039B3C4A3A490020FEF75D
:104FD40065FF3B4A039B03EB430302EB8303EB6054
:104FE400029B03EB430302EB83022A612F4B1D60F8
:104FF40059E00398FFF7C0FC39E03248FEF766FB3E
:10500400237B627A214603A8FFF73AFD064600286F
:105014002DD0637A012B13D1236893F84830019380
:10502400E37A0093039B284A22490020FEF736FFC7
:10503400039B03EB4303224A02EB83032B6132E01D
:10504400236893F848300193E37A0093039B1E4A44
:1050540018490020FEF722FF039B03EB4303184A81
:1050640002EB8303EB601EE01648FEF72FFB236878
:1050740093F84A30E27A0092144A0E490020FEF76F
:105084000DFF0026666029460B4800F093FD0AE0F8
:10509400236893F84A30E27A00920D4A05490020C9
:1050A400FEF7FCFE0026304604B070BDBC1F002095
:1050B4004C7300087C7300089C1F00208873000850
:1050C400C01F002080720008B8730008F473000841
:1050D4001C740008F0B4456804682B691B785B01F4
:1050E40003F1A043D3F8007594F84A20920502F026
:1050F400FE51867A154A3A40324394F84940002CCE
:105104000CBF4FF4003400240A432243C3F80025A3
:105114000468EB681B785B0103F1A043D3F80055E6
:1051240094F84A20920502F0FE51807A074A2A40F8
:10513400024394F8490000280CBF4FF400300020CB
:105144000A430243C3F80025F0BC704700F83D60F1
:1051540010B5446802232375E3681BB10121187854
:10516400FFF762FD23691BB101211878FFF75CFD8D
:10517400002323752146024800F01CFD10BD00BF2A
:105184009C1F0020F8B5C3685E689D7A848C24B1A6
:105194006319013BB3FBF5F300E00123012907BFC9
:1051A4005D4331692546F1680F78012434758860C0
:1051B400C068047A1CB1023C012C24D805E0002A02
:1051C40014BF032202220A7120E04879002814BF88
:1051D400022200220A7103F0010242404A717A015C
:1051E40002F1A042D2F8000520F020400F4CA46840
:1051F40004F00104002C14BF00244FF00054204399
:10520400C2F8000502E00A48FEF760FA0A79DB04F6
:1052140043EA42732B437A0102F1A042C2F81035EB
:105224003846FFF7F5FB0120F8BD00BF000400502D
:1052340080720008F8B54FF0A0439A6922F010027A
:105244009A61186AC0F34343022B66D10609C6F378
:105254000A07002F61D000F00F0000EB4002324B30
:1052640003EB8203D3F808C0BCF826E0DCF8203056
:105274009E44032F1ED92D4B53F820500EF10402E7
:1052840039462B6802F8043C1C0A02F8034C1C0C37
:1052940002F8024C1B0E02F8013C043904320329C3
:1052A400EFD83B1F23F0030304339E4416F0030698
:1052B4001CD000E03E461D4B53F820301B68022EE4
:1052C40006D0032E0AD0012E10D18EF800300DE046
:1052D4008EF800301B0A8EF8013007E08EF800309B
:1052E4001A0A8EF801201B0C8EF80230BCF8263006
:1052F4001F44ACF82670430103F1A04303F5806317
:10530400D3F81031C3F3C9433BB1430103F1A043C4
:105314002022C3F80825FFF77BFB4FF0A0429369D6
:1053240043F010039361F8BDC01F002044740008CB
:1053340008B54FF0A043D86AC0F3C360FFF738FB49
:1053440028B94FF0A042936923F02003936108BD6C
:105354002DE9F047504FDFF84C917E69002E00F0A4
:1053640098804E4D07244FF0010808FA04F33342A5
:1053740000F0888007EB4413D3F8083113F0800F52
:1053840009D002212046FFF72BFC07EB44138022AF
:10539400C3F8082176E013F0080F09D00221204653
:1053A400FFF71EFC07EB44130822C3F8082169E049
:1053B40013F0010F09D003212046FFF711FC07EB7E
:1053C40044132122C3F808215CE013F0100F19D014
:1053D40007EB44131022C3F8082195F85A3063B937
:1053E40095F85730012B03D12046FFF711FB49E014
:1053F40000212046FFF718FC44E000212046FFF777
:1054040013FC3FE013F0020F2BD059F8243013B3F0
:105414001B7D012B02D0022B16D01CE095F85A30CC
:105424001BB92046FFF7F4FA15E0630103F1A0432A
:10543400D3F8002522F0404282F00052C3F8002540
:105444002046FFF7E5FA06E002212046FFF7C8FBF5
:105454002046FFF791FA07EB44130222C3F8082110
:1054640010E013F4007F0AD007EB44134FF40072EA
:10547400C3F8082100212046FFF7D6FB02E00848C4
:10548400FEF724F9013C0C3DB4F1FF3F7FF46DAF0E
:1054940063E7BDE8F08700BF00040050C01F002090
:1054A400807200087C1F002010B54FF0A0435C6997
:1054B4009B691C4014F0080F08D01F4B1868143067
:1054C400FDF7D4FC08224FF0A0435A6114F0100FEA
:1054D40001D0FFF7AFFE14F0806F02D01748FEF73B
:1054E400F5F814F0200F01D0FFF722FF14F0007F2D
:1054F40001D0FFF72DFF14F0807F1CD0104B1B6CE4
:1055040003F48E5213F0020F09D042F002020C4B46
:105514001A64094B18682430FDF796FC10BD13F08B
:10552400080F08D042F00802054B1A64024B1868B1
:105534002430FDF789FC10BD781F0020807200081C
:105544000004005091F82C30032B0CBFC88C4FF092
:10555400FF30704710B50C460648FEF78DF894F8F6
:105564005030022B1CBF022384F850300148FEF750
:10557400A1F810BD6821002008B50846FFF7E8FC33
:1055840008BD00BFF0B583B007460C462E48FEF7B1
:1055940073F804F11C052846FFF7DAFC002846D00E
:1055A400012184F8501008230093284B0022204640
:1055B400FDF712F9002834D094F8493033B1234B65
:1055C400DB7984F826302846FFF784FD204B1E78CB
:1055D4000136F6B21E7031462046FDF731F940B36C
:1055E40084F84A602846FFF775FD12230093174B91
:1055F400002201212046FDF7EFF860B1134920464F
:10560400FCF79AFE0546C8B994F84830114A124985
:10561400FEF744FC0DE0114A0F490020FEF73EFC62
:1056240007E00F4A0C490020FEF738FC01E0002592
:1056340004E021463846FFF78DFF00250248FEF7B7
:1056440039F8284603B0F0BD682100200008002086
:10565400D0210020647400088C740008947400083D
:10566400BC74000808B50846C968497A0262838494
:105674000022C284012380F82C30FFF783FD08BD8B
:1056840008B50846FFF764FD012008BDF8B50446D7
:105694000D461F46164612B1C068FFF71BFD276270
:1056A400069BA3840023E384012384F82C30324630
:1056B40029462046FFF766FD20B1002104F11000C1
:1056C400FDF7DAFB94F82C00032814BF0020012016
:1056D400F8BD00BFF0B58FB005460C4616461F4610
:1056E4001848FDF7C9FF05F11C0102A8FDF7BEF833
:1056F400009623460122002102A8FFF7C7FF0446B3
:10570400C8B1149B7BB195F8493013B90220FEF758
:10571400BBF9149B00933B460022114602A8FFF7F5
:10572400B5FF044638B1002200921346012102A8B5
:10573400FFF7ACFF04460348FDF7BCFF20460FB05B
:10574400F0BD00BF68210020F0B58FB006460C46BE
:1057540015461F461448FDF78FFF06F11C0102A8E9
:10576400FDF784F8009523460122002102A8FFF7E3
:105774008DFF044690B1149B43B100933B46002235
:10578400012102A8FFF782FF044638B100210091ED
:105794000B460A4602A8FFF779FF04460248FDF7C4
:1057A40089FF20460FB0F0BD6821002038B50546BA
:1057B4000748FDF759FF074C0123074A07492046CC
:1057C400FCF79AFE29462046FFF760FA38BD00BF71
:1057D400682100202C2100207C210020E474000892
:1057E40010B5B02209490A48FDF794FB58B9084C92
:1057F40004F13800FDF738FF064B1C60064B1C60B3
:10580400064B1C6010BD0648FDF760FFF8700008E9
:10581400D42100202822002024220020202200203D
:105824000471000838B5154672B10B784BB10A46BD
:10583400002302E012F8014F2CB101339D42F9D14B
:1058440002E0002500E01D462A46FDF77FFB38BD37
:1058540010B504460068FDF737F923680344236054
:1058640010BD00BF2DE9F04F95B082460C46019360
:1058740090464FF0200B00263746B146E4E0252B36
:1058840040F0E08046B1F143324629440198D047C4
:105894000028C0F2CB800744CDF808906378302B01
:1058A40004BFA51C4FF0300B02A92846FCF7EAFF01
:1058B4002A18441C2C442B5C8DF80F30002B00F06C
:1058C400B88003F0DF034C2B08D1941C53788DF877
:1058D4000F30002B00F0B080012200E04A469DF812
:1058E4000F304D3B2B2B00F29680DFE803F08094C1
:1058F4009494949494949494945F94949494949499
:10590400949494948E2194949494949494948094E0
:105914009494949416944094946108F104054FF07F
:10592400FF32D8F800100198D047A846002678E046
:1059340012F0010F0BD008F104055B46029AD8F867
:10594400001004A8FCF7F2FF0646A8460AE008F196
:1059540004055B46029AD8F8001004A8FCF7E6FF99
:105964000646A846324604A90198D04759E012F0E9
:10597400010F0BD008F104055B46029AD8F8001019
:1059840004A8FCF79DFF0646A8460AE008F10405B2
:105994005B46029AD8F8001004A8FCF791FF06466B
:1059A400A846324604A90198D0473AE042F00202E0
:1059B40012F0010F0BD008F104055B46029AD8F8E7
:1059C400001004A8FCF7C0FF0646A8460AE008F148
:1059D40004055B46029AD8F8001004A8FCF7B4FF4B
:1059E4000646A846324604A90198D04719E008F1B2
:1059F400040504A9D8F80000FCF7DAFB06460246C1
:105A040004A90198D047A8460BE0D8F800308DF8D7
:105A14000F3008F1040801220DF10F010198D0475D
:105A2400002600280BDB074400260DE0074600266D
:105A340011E0254600260EE0254600260BE0074629
:105A4400254608E001362C46651C23788DF80F3076
:105A5400002B7FF414AF56B1002F08DBF14332461C
:105A640029440198D0470028ACBF3F180746384660
:105A740015B0BDE8F08F00BFF8B505460E461746D1
:105A840000F138042046FDF7F7FD2B463A4631462F
:105A94000448FFF7E7FE05462046FDF70BFE2846BF
:105AA400F8BD00BF2958000808B5064B1B682BB188
:105AB4000A4601461846FFF7DFFF08BD4FF0FF30E6
:105AC40008BD00BF282200200FB400B583B004A98C
